:020000040800F2
:10000000781B002005010008B15E0008A14B000824
:10001000AD5E000899070008739200080000000018
:10002000000000000000000000000000096400085B
:10003000410E000800000000A163000801650008EF
:100040001F0100081F0100081F0100081F01000810
:100050001F0100081F0100081F0100081F01000800
:100060001F010008430E00081F0100081F010008BF
:100070001F0100081F0100081F0100081F010008E0
:100080001F0100081F0100081F0100084D91000812
:10009000BD9100081F0100081F0100084D0E000857
:1000A0001F0100081F0100081F0100081F010008B0
:1000B0001D6600082D6600081F0100081F010008CA
:1000C0001F0100081F0100081F0100081F01000890
:1000D0001F0100081F0100081F0100081F01000880
:1000E0001F0100081F0100081F010008DFF810D0E1
:1000F00000F052F900480047D1930008AFF30080A8
:10010000781B00200648804706480047FEE7FEE7C8
:10011000FEE7FEE7FEE7FEE7FEE7FEE7FEE7FEE7B7
:100120001B660008ED000008202A04DB203A21FAB3
:1001300002F00021704721FA02F3D040C2F1200200
:10014000914008431946704740EA01039B0703D0DA
:1001500009E008C9121F08C0042AFAD203E011F806
:10016000013B00F8013B521EF9D27047D2B201E0C8
:1001700000F8012B491EFBD270470022F6E710B5AC
:1001800013460A4604461946FFF7F0FF204610BD05
:1001900080EA010210B502F00043400022D04A007C
:1001A0001FD0010E01EB1261C0F35600C2F35602DC
:1001B00040F4000042F40002A0FB022000047F395A
:1001C000140400D0401C50EA124001D44000491EE3
:1001D000C2B20C0604EBD010401C4008802A02D0AA
:1001E00003E0002010BD20F00100002900DA00200B
:1001F000184310BD30B480EA010202F0004530F02F
:10020000004221F0004013D090B1C30DD40DC2F3D1
:100210001601C0F31600E41A41F4000140F4000294
:100220007D34914201D3641C00E04900002C02DAC5
:1002300030BC002070474FF400000023914201D3EE
:10024000891A034340084FEA4101F7D151B1914265
:1002500002D14FF0004105E002D24FF0010101E070
:100260006FF0010103EBC450284430BC00F05CB8CF
:1002700096230022114600F060B800F0004230F0F2
:1002800000400AD0C10D01F56071C0F3160042EACA
:100290000151C208400711437047002001467047D2
:1002A00030B5041E71F1000404DB4FF000444042FD
:1002B00064EB0101141E73F1000405DB1C464FF0D2
:1002C0000043524263EB04038B4208BF824230BDBD
:1002D00030B5041E71F1000404DB4FF000444042CD
:1002E00064EB0101141E73F1000405DB1C464FF0A2
:1002F0000043524263EB0403994208BF904230BD71
:10030000002801DBC0F10040002901DBC1F1004100
:1003100081427047002801DBC0F10040002901DB69
:10032000C1F10041884270470029A8BF7047401CB6
:10033000490008BF20F00100704710B4B0FA80FCFB
:1003400000FA0CF050EA010404BF10BC704749B138
:10035000CCF1200421FA04F411FA0CF118BF0121A8
:1003600021430843A3EB0C01CB1D4FEA00614FEA88
:10037000102042BF002010BC704700EBC350104457
:100380000029A4BF10BC7047401C490008BF20F0E2
:10039000010010BC70470000064C074D06E0E06805
:1003A00040F0010394E8070098471034AC42F6D3BC
:1003B000FFF7A0FE8C9A0008AC9A000870B58C1864
:1003C00010F8015B15F0070301D110F8013B2A1169
:1003D00006D110F8012B03E010F8016B01F8016B56
:1003E0005B1EF9D12B0705D40023521E0DD401F852
:1003F000013BFAE710F8013BCB1A921C03E013F81B
:10040000015B01F8015B521EF9D5A142D8D300204F
:1004100070BD00002DE9F04F95B028210BA8FFF723
:10042000ACFE282101A8FFF7A8FE0027B846BB466E
:1004300000200090002400BF16E0364800690BA998
:1004400041F824003348406901A941F824003148AB
:10045000C06883442F4881680098084400900120B8
:1004600001F0B6F9601CC4B2082CE6DB4FEADB00F1
:10047000294908600098C00848600B9D2E46DDF8A9
:100480000490CA46002415E00BA850F82400074445
:100490000BA850F82400A84202D20BA850F8245010
:1004A0000BA850F82400B04202D90BA850F82460E1
:1004B000601CC4B2082CE7DBB81B471B002415E006
:1004C00001A850F82400804401A850F82400A84254
:1004D00002D201A850F8245001A850F82400B042DC
:1004E00002D901A850F824A0601CC4B2082CE7DB94
:1004F000A8EB0A00A0EB09080620B7FBF0F00749BB
:1005000008600620B8FBF0F00549086015B0BDE8AA
:10051000F08F0000000300205C010020E0000020BC
:10052000E400002070B5044600252068806800F0D3
:10053000010018B32068806820F0010021688860FD
:1005400001F006FD054613E001F002FD401B022804
:100550000ED92068806800F0010048B1A06A40F020
:100560001000A062E06A40F00100E062012070BD6E
:100570002068806800F001000028E5D10020F6E73F
:1005800070B505466C6AA06A00F05000E0B9A06A38
:1005900040F40070A0622068806800F46020B0F52C
:1005A000602F0DD1207B58B9A06A20F48070A06222
:1005B000A06A00F4805018B9A06A40F00100A0625F
:1005C000204600F0AFFE03E0206A016B2846884712
:1005D00070BD70B505466C6AA06A40F04000A0622C
:1005E000E06A40F00400E062204600F09DFE70BD2D
:1005F00070B50446656A284600F095FE70BD00009F
:1006000038B504460025002000902068806800F07E
:10061000010078BB2068806840F001002168886094
:10062000194800681949B0FBF1F0009002E0009809
:10063000401E009000980028F9D101F089FC054681
:1006400019E001F085FC401B022814D9206880685D
:1006500000F0010078B9A06A40F01000A062E06AE2
:1006600040F00100E06200BF002084F8240000BFD9
:10067000012038BD05E02068806800F001000028F6
:10068000DFD00020F5E70000E801002040420F0025
:10069000002000BF79E03E49095C062971D2DFE8FD
:1006A00001F0030E24394F643A4951F8201040F606
:1006B0002872914202D80121354A115462E035492D
:1006C00051F8201040F63632914203D80221304AC8
:1006D000115409E02F4951F8201040F63C72914224
:1006E00002D900212A4A11544CE02A4951F820101D
:1006F00040F6FC02914203D80321254A115408E038
:10070000244951F82010B1F5346F02D90121204A53
:10071000115437E01F4951F8201040F6020291426F
:1007200003D804211A4A115409E01A4951F820103B
:1007300040F60612914202D90221154A115421E0D5
:10074000144951F82010B1F5117F03D80521104A42
:10075000115409E00F4951F8201040F60C02914263
:1007600002D903210A4A11540CE00A4951F8201019
:1007700040F24E22914202D90421054A115401E06F
:10078000FFE700BF00BF411CC8B2022883DB7047EF
:10079000DD0000205C01002000BFFEE710B57848B6
:1007A000007830B101287DD002287CD003287BD18D
:1007B000B9E0744800780F2877D2DFE800F0080924
:1007C0002B2C2D2E327A7B7FA4A5A6A7A800A3E010
:1007D0006D48817A012004F0EFFF012005F0F6FD5D
:1007E0000220674908700020664908700121032033
:1007F00004F0F0FE6548808865490880002065495E
:10080000086001F0A5FB6449086001F0A1FB6349A1
:10081000086081E000BF00BF00BF00205949087098
:100820007AE05F480078032803D05D480078042808
:1008300023D15548817A012004F0BEFF012005F044
:10084000C5FD03204E4908700121022004F0C2FEBC
:1008500001204D49C87300F0F1FB4C4880884C4999
:10086000088000204B49086001F072FB4A4908608B
:1008700001F06EFB494908600EE04948007858B91C
:100880000020424948720121084604F0A3FE0120DD
:100890003D49C87300F0D2FB0121002004F09AFE0C
:1008A000002003E03AE03DE066E034E035490870BE
:1008B00032E000BF0020334908702DE000203149AC
:1008C00008703149C87300F0B9FB00BF00BF00BF1A
:1008D00000BF00BFBFF34F8F00BF00BF00BF314854
:1008E000006800F4E06030490843001D2D490860AD
:1008F00000BF00BF00BFBFF34F8F00BF00BF00BFEE
:1009000000BF00BFFDE700BF00BF00BF00BF002069
:100910001C49087000E000BF00BF2EE0002019490C
:1009200008702AE000BF1748007820B3002015495E
:1009300008700021084604F03FFF002005F046FD46
:100940000021032004F046FE0021022004F042FEB4
:100950000021012004F03EFE00200B49C87300F086
:100960006DFB00200B49086001F0F2FA0A490860AB
:1009700000200349087000E000BF00BF10BD000068
:1009800000010020590100204C0500200401002036
:10099000B8000020F4000020EC000020340100200A
:1009A000DC0000200CED00E00000FA050346042BFB
:1009B00015D007DC7BB1012B0ED0022B0DD0032B01
:1009C00012D10BE0202B0BD0212B0AD0222B09D0E7
:1009D000232B09D107E008E007E006E005E004E08A
:1009E00003E002E001E000E000BF00BF002070472C
:1009F0000020704710B500220449054806F0C8F9E8
:100A00000449034806F0BDF9002010BD200E002067
:100A100064050020200A002070B504460D462146DA
:100A2000034806F0AEF9024806F087F9002070BDD1
:100A30006405002010B5DD48007818B9DB4840781F
:100A400000287DD0DA48007800287AD1D74800788D
:100A5000052877D0D54840780528FAD0D548C07AFF
:100A600038B1D2480078012803D0D0484078012816
:100A700003D1D048C07A002864D1CF480078052837
:100A80007ED2DFE800F00346A1D6FD00CB48006827
:100A900040F69211884224D8C948006800F0DBF97A
:100AA000C849086008460068C74988420CD2C7494F
:100AB000087800EBD0714910C54A117010460078D3
:100AC000C4490968486323E00020C149087008460A
:100AD0000078C049096848630121042004F07AFDC8
:100AE00016E0BA49087800EBD0714910B84A117085
:100AF00010460078B7490968486301210A2004F0CC
:100B000069FD0120AC49087001F022FAAC49086087
:100B100005E1AA48006840F68C21884218D3AB480A
:100B20000078AB49087008460078AA49096848630C
:100B300001210A2004F04EFD02209F49087002E0C6
:100B400020E104E1ECE001F003FA9D4908603AE09D
:100B50009A48006840F6921188421AD200209D49B6
:100B600009684863142000F033FE00210A2004F0D5
:100B700031FD0121042004F02DFD00208E4900E00C
:100B8000CCE008708F49086001F0E2F98C490860F8
:100B900019E08B48006800F05EF98A490860084651
:100BA0000068B0F57A7F0ED38B48006883490968E6
:100BB000884204D20121052004F00CFD03E000214D
:100BC000052004F007FDAAE07C48006840F6DE51ED
:100BD000884213D300207F490968486300210A2016
:100BE00004F0F8FC01210B2004F0F4FC042072490D
:100BF000087001F0ADF97249086019E070480068AA
:100C000000F029F96F49086008460068B0F57A7F5E
:100C10000ED37148006869490968884204D20121ED
:100C2000052004F0D7FC03E00021052004F0D2FCED
:100C300075E06248006840F6DE5188420FD300201C
:100C400064490968486301210B2004F0C3FC0420B7
:100C50005949087001F07CF95949086039E0574852
:100C6000006840F63451884219D8584800785849ED
:100C7000087008460078574909684863022000E078
:100C800028E000F0A5FD01210A2004F0A3FC0220C9
:100C90004949087001F05CF94949086019E0484881
:100CA000006800F0D8F84749086008460068B0F5C9
:100CB0007A7F0ED34848006840490968884204D2C8
:100CC0000121052004F086FC03E00021052004F04A
:100CD00081FC24E03A48006800F0BDF8394908601A
:100CE00008460068B0F57A7F17D33448006840F6AC
:100CF0003451884211D23549087800EBD07149103F
:100D0000334A11701046007832490968486314204C
:100D100000F05EFD03202849087000E000BF43E0BA
:100D200000202C49096848630A2000F051FD002189
:100D30000A2004F04FFC00210B2004F04BFC0020A3
:100D40001D49087001F004F91D4908602CE00020DD
:100D50002049096848630021052004F03BFC142069
:100D600000F036FD00210A2004F034FC00210B20A5
:100D700004F030FC00201049087001F0E9F8104937
:100D8000086011E000201349096848630A2000F058
:100D90001FFD00210A2004F01DFC0121042004F0A5
:100DA00019FC00200449087010BD0000DD0000207F
:100DB000000100204C050020DC000020E0000020A5
:100DC000EC000020F4000020C0270900E80000200B
:100DD00030010020BC040020E40000200B49487AC8
:100DE000102804D0202806D040280CD107E0152177
:100DF000074A117008E02721054A117004E04E21CE
:100E0000034A117000E000BF00BF70474C0500208E
:100E1000E800002030B590F840500124AC40C56B8C
:100E20006C60046863604468102C04D10468A2609C
:100E30000468E16003E00468A1600468E26030BD1A
:100E4000704710B5082000F0D7FE10BD10B5202067
:100E500000F0D2FE10BD70B5044601F079F80546E9
:100E6000A54201D3281B70BDC4F1FF302844401CAB
:100E7000F9E770B5044601F06BF80546A54201D3C9
:100E8000281B70BDC4F1FF302844401CF9E770B541
:100E9000044601F05DF80546281B4FF47A71B0FB5B
:100EA000F1F070BD72B600BFFEE700000021074AF6
:100EB000D1610749096941F00401054A11611146F0
:100EC000096941F040011161704700005817002086
:100ED000002002400021074AD1610749096941F019
:100EE0000201054A116111464861096941F040015A
:100EF0001161704758170020002002400022054B66
:100F0000DA61054A126942F00102034B1A6101805D
:100F100070470000581700200020024000201E49A2
:100F2000C96801F0100139B11C49C96941F00201D9
:100F30001A4AD16140F010001749C96801F0040154
:100F400039B11649C96941F00101144AD16140F033
:100F500004001149C96901F0010169B10F49C9696A
:100F600041F004010D4AD16100BF0B49C96921F06C
:100F70000101094AD16100BF00BF40F2011188425E
:100F800006D10549C96921F00101034AD16101E097
:100F90000149C86000BF7047002002405817002078
:100FA00070B5044600F0D4FF054609E0601C38B176
:100FB00024B100F0CDFF401BA04201D9032070BD39
:100FC0001248C06800F001000028EFD10F48C06847
:100FD00000F0200020B100BF20200C49C86000BFF5
:100FE0000A48C06800F0100048B90848C06900F01D
:100FF000010020B90548C06800F0040018B1FFF7EF
:101000008DFF0120DBE70020D9E70000002002402F
:1010100000B585B0012001900390074802900020A0
:10102000009000F0A3FC04A9684600F0E5FB08B1BD
:1010300005B000BD00BFFBE700FC000870B5FFF77E
:10104000E7FF00240CE0094850F82450084800EB62
:1010500084012A460023022000F030FC601CC4B248
:10106000062CF0D300F020FC70BD00004C050020E1
:1010700000FC000870B50A480468001D0568001DE2
:101080000668344454B108220649204604F066F844
:10109000042204491031284604F060F870BD0000B5
:1010A000E8F7FF1FB2010020F8B504460026002033
:1010B000009000BF94F82400012801D10220F8BD5F
:1010C000012084F8240000BF2046FFF72BFA0646D3
:1010D0002046FFF795FA0646002E69D1A06A20F453
:1010E000885040F00200A062022001F0FFFE344967
:1010F0000968B1FBF0F04000009002E00098401E4B
:10110000009000980028F9D12068806840F008001D
:101110002168886000F01CFF054616E000F018FF0B
:10112000401B0A2811D92068806800F0080060B1CF
:10113000A06A20F0020040F01000A06200BF002072
:1011400084F8240000BF0120B9E72068806800F01F
:1011500008000028E2D12068806840F0040021687F
:10116000886000F0F5FE054616E000F0F1FE401B39
:101170000A2811D92068806800F0040060B1A06AD4
:1011800020F0020040F01000A06200BF002084F8B0
:10119000240000BF012092E72068806800F004006E
:1011A0000028E2D1A06A20F0020040F00100A06215
:1011B00000BF002084F8240000BF30467FE7000015
:1011C000E801002038B5024600230020009000BF4F
:1011D00092F82400012801D1022038BD012082F8B4
:1011E000240000BF4868072812D21068406B0C79B1
:1011F000641E04EB84051F24AC40A0430D796D1ED2
:1012000005EB85050C68AC4020431468606327E05B
:1012100048680D2812D21068006B0C79E41F04EBAB
:1012200084051F24AC40A0430D79ED1F05EB850517
:101230000C68AC4020431468206311E01068C06A59
:101240000C790D3C04EB84051F24AC40A0430D79C0
:101250000D3D05EB85050C68AC4020431468E06249
:1012600008680A2812D31068C0680C780A3C04EB9E
:1012700044050724AC40A0430D780A3D05EB450525
:101280008C68AC4020431468E0600FE0106800698F
:101290000C7804EB44050724AC40A0430D7805EB23
:1012A00045058C68AC40204314682061086810280C
:1012B00002D00868112827D1174C1068A0421ED10F
:1012C0001068806800F40000F0B91068806840F48D
:1012D00000001468A0600868102815D10F48006845
:1012E0000F4CB0FBF4F000EB80004000009002E0F7
:1012F0000098401E009000980028F9D104E0906A00
:1013000040F020009062012300BF002082F82400FA
:1013100000BF184661E7000000240140E8010020FA
:1013200040420F0070477047704700002DE9F041C0
:101330000446002700250026A84614B90120BDE870
:10134000F081A06810B1207D00B100BFA06A30B963
:101350000020E06284F82400204600F089F820464E
:10136000FFF7E0F80746A06A00F01000002873D1EC
:10137000002F71D1A06A20F4885040F00200A062D2
:10138000E16960680843217B40EA41000643A068A8
:10139000B0F5807F02D0A068012802D14FF48070A0
:1013A00000E000200543207D012811D1207B38B9C1
:1013B000A069401E4FF4006141EA4030054307E058
:1013C000A06A40F02000A062E06A40F00100E06204
:1013D0002068406820F469402843216848602068FC
:1013E000806821490840304321688860A068B0F5D2
:1013F000807F02D0A068012802D14FF4807000E005
:101400000020B0F5807F03D1208A401E4FEA0058AB
:101410002068C06A20F4700040EA08002168C862B1
:101420002068806811490840B04208D10020E0627D
:10143000A06A20F0020040F00100A06211E0A06A62
:1014400020F0020040F01000A062E06A40F00100CD
:10145000E062012705E0FFE7A06A40F01000A0620B
:10146000012738466BE70000FDF7E1FFFE0E1FFF86
:1014700010B586B0044600200290039004900590B9
:101480002C492068884252D100BF2B48806940F423
:101490000070294988610846806900F40070019055
:1014A00000BF00BF00BF0846806940F004008861AB
:1014B0000846806900F00400019000BF00BF00BF33
:1014C0000846806940F0080088610846806900F09D
:1014D0000800019000BF00BF0F200290032003907E
:1014E00002A9164800F096FB03200290039002A97F
:1014F000134800F08FFB1348134908600020486030
:101500000021114881608021C1608900016189004A
:101510004161202181610902C16100F0D7F808B161
:10152000FFF7C0FC00BF08482062446200BF06B05D
:1015300010BD0000002401400010024000080140DE
:10154000000C014008000240480300202DE9F04152
:1015500004460D461646002757492068884203D0A6
:1015600056492068884205D15348001D006800F4A0
:10157000702000E0002000287ED100BF94F82400F5
:10158000012802D10220BDE8F081012084F8240066
:1015900000BF2046FFF734F80746002F6DD1A06A40
:1015A00040F60161884340F48070A062434920689E
:1015B000884209D14048001D006800F4702008B935
:1015C000012002E0002000E0012078B1A06A20F4B0
:1015D0008010A0622068406800F4806000B3A06AB8
:1015E00020F4005040F48050A06219E0A06A40F45A
:1015F0008010A06230492068884203D02F492068BB
:10160000884205D12C48001D006800F4806000E08D
:10161000002028B1A06A20F4005040F48050A0625D
:10162000A06A00F4805020B1E06A20F00600E06279
:1016300001E00020E06200BF002084F8240000BF29
:101640001F48216A88621F48216AC8621E48216AB1
:1016500008636FF00200216808602068806840F429
:10166000807021688860226802F14C0133462A4666
:10167000206A00F05FF801E01AE014E0206880685A
:1016800000F46020B0F5602F06D12068806840F437
:10169000A000216888600CE02068806840F4801019
:1016A0002168886005E000BF002084F8240000E085
:1016B0000127384667E70000002401400028014068
:1016C00081050008F1050008D30500080146002245
:1016D00009B901207047164B0868C01A1423B0FBE3
:1016E000F3F08000086412480838C863022081F8CB
:1016F00021000868026843F6F0708243D1E90103D3
:101700001843CB6818430B6918434B6918438B691E
:101710001843CB69184302430868026000208863BD
:10172000012081F82100002081F8200000BFD1E7CE
:10173000080002402DE9F04104460D4616461F46BA
:101740004FF0000800BF94F82000012802D10220C9
:10175000BDE8F081012084F8200000BF94F821004A
:1017600001282CD1022084F821000020A0632068E9
:10177000006820F00100216808603B463246294697
:101780002046FFF747FBE06A30B12068006840F070
:101790000E00216808600BE02068006820F004005B
:1017A000216808602068006840F00A00216808602D
:1017B0002068006840F001002168086006E000BF72
:1017C000002084F8200000BF4FF002084046BFE729
:1017D00070B5044600F0BCFB06462546681C10B1F7
:1017E00004480078054400BF00F0B2FB801BA8420B
:1017F000FAD370BDE40100202DE9F04104460E4605
:101800000127002500BF2648007E012802D10220C2
:10181000BDE8F08101202249087600BF2068022837
:1018200013D14CF25030FFF7BBFB90BB0120FFF708
:101830003DFB4CF25030FFF7B3FB074619480069F7
:1018400020F004001749086123E04CF25030FFF704
:10185000A7FBF0B94FF0FF303060A56812E02846D2
:10186000FFF738FB4CF25030FFF79AFB07460D4864
:10187000006920F002000B4908610FB1356007E0F4
:1018800005F58065D4E9021001EB8020A842E6D876
:1018900000BF00BF00200249087600BF3846B7E706
:1018A00058170020002002400348006940F08000E3
:1018B0000149086100207047002002402DE9FE4FD9
:1018C00005468B46174698460126002400200290C4
:1018D00000BF2448007E012802D10220BDE8FE8F0F
:1018E00001202049087600BF4CF25030FFF758FB2A
:1018F000064686BB012D02D10120029006E0022D92
:1019000002D10220029001E00420029000241EE097
:101910002201B946C24648465146FEF705FC80B250
:101920000190022000FB04B000900199FFF7E6FA55
:101930004CF25030FFF734FB06460B48006920F0AC
:1019400001000949086106B104E0601CC4B20298B4
:101950008442DDDB00BF00BF00200249087600BFE3
:101960003046BBE7581700200020024000200849FD
:10197000096901F0800151B10649054A51600649E3
:1019800051601146096901F0800101B101207047E1
:101990000020024023016745AB89EFCD10B5044616
:1019A000202C7AD101208B49087000208A490870C8
:1019B0007DE000F0CDFA894908601AE000F0C8FA2D
:1019C000874908600846006884490968884207D347
:1019D00000F0BEFA81490968401A8249086008E0AF
:1019E00000F0B6FA401E7D490968401A401C7D4946
:1019F000086020217C4800F09DFA0028DED079485C
:101A00000068322805D37748006842F21071884296
:101A100003D300207049087020E072480068322823
:101A20000AD370480068B0F57A7F05D26A4800781A
:101A3000401C6949087011E06A480068B0F57A7F77
:101A400009D36848006840F6B831884203D20520BF
:101A50006649087002E00620644908700020614968
:101A600008600520FFF7B4FE00F072FA5B490860D9
:101A700017E000F06DFA5A490860084600685749B7
:101A80000968401A574908602021574800F052FA67
:101A900020B901204F49087008E097E000204D4927
:101AA000087050480068B0F5967FE2D300BF4948FF
:101AB000007801283FF47DAF4C480078052823D0FA
:101AC0004A48007806281FD043480078012802D1F0
:101AD0004749087075E040480078022802D144491F
:101AE00008706EE03C480078032802D14049087035
:101AF00067E039480078042802D13D49087060E069
:101B000000203B4908705CE03848007805282AD15D
:101B10003148007818B905203549087051E02E4841
:101B20000078012803D107203149087049E02A488C
:101B30000078022803D108202D49087041E026488A
:101B40000078032803D109202949087039E0224888
:101B50000078042803D10A202549087031E00020CC
:101B6000234908702DE021480078062829D11A4819
:101B7000007818B906201E49087022E0164800783F
:101B8000012803D10B201A4908701AE01248007886
:101B9000022803D10C201649087012E00E48007884
:101BA000032803D10D20124908700AE00A48007882
:101BB000042803D10E200E49087002E000200C49D1
:101BC000087000200449087008490870094804603A
:101BD00010BD000065010020700100206801002098
:101BE000740100206C010020000C014071010020F4
:101BF000590100201404014010B50446044800684F
:101C0000204020B1024804602046FFF7C7FE10BD07
:101C1000140401402DE9F8470346002294466EE182
:101C20004FF0010808FA02F4D1F8008008EA040035
:101C3000A0427DD1DFF8DCA2D1F80480A8EB0A092C
:101C4000D0453AD014DCB8F1030F50D009DCB8F11C
:101C5000000F31D0B8F1010F1CD0B8F1020F49D1FB
:101C600020E0B8F1110F18D0B8F1120F42D11EE0E8
:101C7000B9F5881F25D006DCB9F5803F20D0B9F52D
:101C8000801F37D11AE0B9F5001F18D0B9F5041F2D
:101C900030D117E0D1F80CC02DE0D1F80C8008F15C
:101CA000040C28E0D1F80C8008F1080C23E0D1F8EE
:101CB0000C8008F10C0C1EE000BF00BF00BF00BF8D
:101CC00000BF00BFD1F80880B8F1000F02D14FF07B
:101CD000040C0BE0D1F80880B8F1010F03D14FF0EC
:101CE000080C1C6102E04FF0080C5C6103E04FF04F
:101CF000000C00E000BF00BFFF2801D8984601E0BB
:101D000003F104084646FF2802D84FEA820803E0A0
:101D1000A2F108084FEA88084746D6F800804FF03D
:101D20000F0909FA07F928EA09080CFA07F900E08F
:101D300088E048EA0908C6F80080D1F8048008F075
:101D40008058B8F1805F7DD100BFDFF8CC81D8F832
:101D5000188048F00108DFF8C091C9F81880C8461B
:101D6000D8F8188008F00108CDF8008000BF00BF47
:101D70004FEAB9384FEA920958F829504FEA827869
:101D80004FEA18794FF00F0808FA09F825EA080514
:101D9000DFF88881434502D14FF0000816E0DFF8F4
:101DA0008081434502D14FF001080FE0DFF87481D4
:101DB000434502D14FF0020808E0DFF86C8143454B
:101DC00002D14FF0030801E04FF004084FEA827996
:101DD0004FEA197908FA09F848EA0505DFF84C8155
:101DE0004FEA920948F82950D1F8048008F4801885
:101DF000B8F5801F0AD1DFF83881D8F8008048EAAA
:101E00000008DFF82C91C9F8008009E0DFF8208194
:101E1000D8F8008028EA0008DFF81491C9F800809B
:101E2000D1F8048008F40018B8F5001F10D1DFF8CD
:101E3000008108F10408D8F8008048EA0008DFF8BB
:101E4000F09000E05AE009F10409C9F800800DE0C3
:101E5000DFF8DC8008F10408D8F8008028EA0008E0
:101E6000DFF8CC9009F10409C9F80080D1F80480AA
:101E700008F40038B8F5003F0ED1DFF8B480A8F1BF
:101E80000408D8F8008048EA0008DFF8A490A9F117
:101E90000409C9F800800DE0DFF89480A8F1040877
:101EA000D8F8008028EA0008DFF88490A9F1040936
:101EB000C9F80080D1F8048008F48038B8F5803F74
:101EC0000ED1DFF86C80A8F10808D8F8008048EA45
:101ED0000008DFF85C90A9F10809C9F800800DE05E
:101EE000DFF84C80A8F10808D8F8008028EA00083C
:101EF000DFF83C90A9F10809C9F80080521CD1F81C
:101F0000008028FA02F8B8F1000F7FF489AEBDE82E
:101F1000F887000000001110001002400008014086
:101F2000000C014000100140001401400800014075
:101F300008040140024693680B400BB1012000E009
:101F4000002070470AB1016101E00B040361704792
:101F50000148006870470000DC0100200348006869
:101F6000034909780844014908607047DC010020F2
:101F7000E401002010B50848006840F01000064950
:101F80000860032000F0A8F8002000F007F800F037
:101F90002BF8002010BD00000020024070B5044660
:101FA0000E4800784FF47A71B1FBF0F00C490968E3
:101FB000B1FBF0F5284601F0A7FC08B1012070BD87
:101FC000102C07D200222146501E00F047F8054889
:101FD000046001E00120F2E70020F0E7E4010020C6
:101FE000E8010020E001002008B500BF1148806929
:101FF00040F001000F4988610846806900F0010047
:10200000009000BF00BF00BF0846C06940F080508C
:10201000C8610846C06900F08050009000BF00BF52
:1020200000BF0549486820F0E06040F0007048605B
:1020300000BF08BD001002400000014001460846F4
:10204000002809DB00F01F0301229A4043099B008E
:1020500003F1E023C3F8002100BF70472DE9F05FD2
:1020600080460D461646002707F066F907463946B2
:102070002A46334601F00700C0F1070ABAF1040FFF
:1020800002D94FF0040A01E0C0F1070AD14600F17D
:10209000040ABAF1070F02D24FF0000A01E0A0F1E2
:1020A000030AD4464FF0010A0AFA09FAAAF1010A12
:1020B0000AEA020A0AFA0CFA4FF0010B0BFA0CFBBF
:1020C000ABF1010B0BEA030B4AEA0B042146404635
:1020D00007F03AF9BDE8F09F00BF00F00702064B99
:1020E00019684FF6FF031940044B0B4343EA0221E2
:1020F000014B196000BF70470CED00E00000FA05CD
:1021000070B505460C4604F08000802808D104F024
:10211000070000EB800605F1100000EBC60105E0AA
:1021200004EB840605F5A87000EBC6011AB900207F
:102130000873CB8004E0012008730B81180C4881E0
:10214000002070BD704770B504460D4605EB850351
:1021500004F1100101EBC3014A692946D4F8D40205
:1021600005F08DF970BD70B504460D4605EB85038D
:1021700004F5A87101EBC3014A692946D4F8D402D9
:1021800005F0FDF970BD70B504460E4606F08000FE
:1021900080280AD106F0070000EB800104F110004E
:1021A00000EBC1050120687009E006F0070000EBB4
:1021B000800104F5A87000EBC1050020687006F0EE
:1021C0000700287000BF94F89002012801D1022076
:1021D00070BD012084F8900200BF2946206806F0F7
:1021E0008DF800BF002084F8900200BF00BFEFE729
:1021F00070B504460E4606F00F002179884201D9D9
:10220000012070BD06F0800080280AD106F007008A
:1022100000EB800104F1100000EBC10501206870A3
:1022200009E006F0070000EB800104F5A87000EB60
:10223000C105002068700020A87006F00700287013
:1022400000BF94F89002012801D10220D9E70120B3
:1022500084F8900200BF2946206806F0ABF900BF61
:10226000002084F8900200BF00BFCAE72DE9F041CA
:1022700005460C46174607F48040002850D02868D1
:10228000B0F85010207801EBC000801C296801F5DF
:10229000806131F81000C0F30906A069B04203D391
:1022A000A069801BA06101E00020A061A069A8B91D
:1022B00000BF22785200296831F812104BF68F7255
:1022C00001EA020080F4005040F4004141F0800136
:1022D00023785B002A6822F8131000BF07F0400043
:1022E000A8B100BF00BF22785200296831F812104F
:1022F00048F68F7201EA020040F4004141F0C0014B
:1023000023785B002A6822F8131000BF00BF002E5C
:1023100055D0228961693346286806F05BFF4EE09C
:102320002868B0F85010207801EBC000801D2968A3
:1023300001F5806131F81000C0F30906A069B042D0
:1023400003D3A069801BA06101E00020A061A06907
:10235000A8B900BF22785200296831F812104BF654
:102360008F7201EA020080F4005040F4004141F015
:10237000800123785B002A6822F8131000BF07F061
:102380004000A8B900BF00BF22785200296831F888
:10239000121048F68F7201EA020040F4004141F049
:1023A000C00123785B002A6822F8131000BF00BF29
:1023B0002EB1628961693346286806F00BFF30460A
:1023C000BDE8F0812DE9F04705460C46904608F03F
:1023D000400000287ED02868B0F85010207801EB2B
:1023E000C000801C296801F5806131F81000C0F33D
:1023F0000907A069B84203D9A069C01BA06101E028
:102400000020A061A06900287ED100BF6078C0B91B
:1024100000BF29682A68B2F85020114422780223AC
:1024200003EBC20201F5806303EB420000BF0288A8
:10243000C2F309020280028842F40042028000BF17
:1024400013E06078012810D100BF28682A68B2F82C
:10245000502010442278022303EBC20200F580636F
:1024600003EB420100220A8000BF00BF00BF2968C1
:102470006078F8B900BF2B68D5F800C0BCF850C030
:10248000634494F800C04FF0060909EBCC0C03F547
:10249000806909EB4C0000BFB0F800C0CCF3090C18
:1024A000A0F800C0B0F800C04CF4004CA0F800C088
:1024B00000BF12E0607801280FD12868B0F8500002
:1024C00001442078062303EBC00001F5806303EB91
:1024D000400200E0B7E00020108000BF21782846CD
:1024E000FFF731FE08F48040002816D000BF00BF7F
:1024F00022785200296831F8121048F68F7201EAEA
:10250000020040F4004100E008E041F481412378FA
:102510005B002A6822F8131000BFD7E108F480405E
:10252000A8B100BF00BF22785200296831F812100C
:1025300048F68F7201EA020040F4004141F4814103
:1025400023785B002A6822F8131000BF00BF94F8BC
:1025500024000128E1D1606938446061E0693844B1
:10256000E0612169206A884204D32669206A801BC1
:1025700020620BE0206A20B93E46002084F8240047
:1025800004E0002084F82400266A206200BF6078FE
:10259000E8BB00BF2A682968B1F850100A442178C6
:1025A000022303EBC10102F5806303EB41010846FE
:1025B00000BF0388C3F3090303803E2E10D900BF78
:1025C000710906F01F0303B9491E03884FF4004C3C
:1025D0004CEA812C1FFA8CFC43EA0C03038014E0C4
:1025E00026B9038843F4004303800EE000BF71085E
:1025F00006F0010303B1491C03884FF6FF7C0CEA87
:10260000812C43EA0C03038000BF00BF13E0FFE707
:10261000607801280FD100BF28682A68B2F85020DE
:1026200010442278022303EBC20200F5806303EB1F
:1026300042010E8000BF00BFB3B2228961692868E1
:1026400006F0F7FD42E12868B0F85010207801EB61
:10265000C000801D296801F5806131F81000C0F3C9
:102660000907A069B84203D3A069C01BA06101E0BB
:102670000020A061A06900287ED100BF6078C0B9A9
:1026800000BF29682A68B2F850201144227802233A
:1026900003EBC20201F5806303EB420000BF028836
:1026A000C2F309020280028842F40042028000BFA5
:1026B00013E06078012810D100BF28682A68B2F8BA
:1026C000502010442278022303EBC20200F58063FD
:1026D00003EB420100220A8000BF00BF00BF29684F
:1026E0006078F8B900BF2B68D5F800C0BCF850C0BE
:1026F000634494F800C04FF0060909EBCC0C03F5D5
:10270000806909EB4C0000BFB0F800C0CCF3090CA5
:10271000A0F800C0B0F800C04CF4004CA0F800C015
:1027200000BF10E0607801280DD12868B0F8500093
:1027300001442078062303EBC00001F5806303EB1E
:1027400040020020108000BF21782846FFF7FBFCE4
:1027500008F48040002816D100BF00BF2278520044
:10276000296831F8121048F68F7201EA020040F42D
:10277000004141F4814100E006E023785B002A68D3
:1027800022F8131000BFA1E008F48040A8B900BFF0
:1027900000BF22785200296831F8121048F68F7273
:1027A00001EA020040F4004141F4814123785B00DA
:1027B0002A6822F8131000BF00BF94F824000128F3
:1027C0007ED1606938446061E0693844E061216924
:1027D000206A884204D32669206A801B20620BE0AD
:1027E000206A20B93E46002084F8240004E0266ACE
:1027F0000020206284F8240000BF2A68607870BB43
:1028000000BFD5F800C02968B1F850108C44217879
:102810004FF0060909EBC1010CF5806909EB410194
:10282000084600BFB0F80090C9F30909A0F800906D
:102830003E2E15D900BF710906F01F09B9F1000F2E
:1028400000D1491EB0F800904FF4004A4AEA812AAC
:102850001FFA8AFA49EA0A09A0F800901BE01CE076
:1028600036B9B0F8009049F40049A0F8009012E0A1
:1028700000BF710806F00109B9F1000F00D0491C32
:10288000B0F800904FF6FF7A0AEA812A49EA0A096D
:10289000A0F8009000BF00BF0FE0607801280CD1C5
:1028A0002868B0F8500002442078062101EBC000EF
:1028B00002F5806101EB40031E8000BFB3B200E06F
:1028C00004E062896169286806F0B3FC00BF2278E1
:1028D0005200296831F8121048F6BF7201EA02006E
:1028E00080F0100080F0200040F4004141F08002B0
:1028F00023785B00296821F8132000BF0020BDE881
:10290000F087024601F0070000EB800302F5A87093
:1029100000EBC300C06970472DE9F04705460E463D
:1029200090461F464FF0000906F0800080280AD12B
:1029300006F0070000EB800105F1100000EBC10478
:102940000120607009E006F0070000EB800105F54A
:10295000A87000EBC1040020607006F00700207032
:10296000C4F81080E770022F01D10020207100BF51
:1029700095F89002012802D10220BDE8F0870120DD
:1029800085F8900200BF2146286805F05BFA00BF79
:10299000002085F8900200BF4846EEE72DE9F0419F
:1029A00005460E461746984606F0070000EB8001E4
:1029B00005F5A87000EBC1046761C4F81880002019
:1029C000E061607006F0070020702146286805F07D
:1029D0008CFE0020BDE8F08170B504460D4605F080
:1029E00007002179884201D9012070BD05F08000DF
:1029F00080280AD105F0070000EB800104F11000E7
:102A000000EBC1060120707007E005EB850104F5BD
:102A1000A87000EBC106002070700120B07005F0B6
:102A20000700307000BF94F89002012801D1022005
:102A3000DBE7012084F8900200BF3146206805F0F2
:102A400026FE05F0070020B904F52671206805F080
:102A5000AEFD00BF002084F8900200BF00BFC4E7B5
:102A60002DE9F04105460E4690461F4606F0070048
:102A700000EB800105F1100000EBC104C4F81480E4
:102A8000A761012084F8240027620020E061012072
:102A9000607006F0070020702146286805F025FECA
:102AA0000020BDE8F0817FB50446206806F08EFB6B
:102AB000064606F40040B0F5004F03D1204603F06F
:102AC000F9F97FBD06F48060B0F5806F10D1206801
:102AD000B0F844004FF6FF3108402168A1F84400E7
:102AE000204600F08FF90021204600F0ABF9E8E71E
:102AF00006F48040B0F5804F09D12068B0F844005A
:102B00004BF6FF7108402168A1F84400D9E706F4AC
:102B10000050B0F5005F09D12068B0F844004DF6D0
:102B2000FF7108402168A1F84400CAE706F480500C
:102B3000B0F5805F1ED12068B0F840004FF6FB7101
:102B400008402168A1F840002068B0F840004FF626
:102B5000F77108402168A1F84000204600F064F9B0
:102B60002068B0F844004EF6FF7108402168A1F8D3
:102B70004400A6E706F40060B0F5006F56D10025CA
:102B800007E06900206830F811002DF81500681C76
:102B9000C5B2082DF5D32068B0F8400040F0010020
:102BA0002168A1F840002068B0F840004FF6FE719F
:102BB00008402168A1F8400000BF2068B0F8440038
:102BC00000F480600028F8D02068B0F844004FF688
:102BD000FF3108402168A1F84400002507E03DF8D6
:102BE00015006A00216821F81200681CC5B2082D82
:102BF000F5D32068B0F8400040F008002168A1F843
:102C000040002068B0F844004FF2FF71084021688E
:102C1000A1F844002068B0F8400040F004002168AA
:102C2000A1F84000204600F04FF94AE706F4007092
:102C3000B0F5007F0CD12068B0F844004FF6FF518A
:102C400008402168A1F84400204600F0F4F838E775
:102C500006F48070B0F5807F09D12068B0F8440098
:102C60004FF6FF6108402168A1F8440029E700BF42
:102C700027E770B504460CB9012070BD94F89102A5
:102C800028B9002084F89002204600F091F8032033
:102C900084F8910200216171206805F07EFC94E8BF
:102CA0000F0005F027FB20B1022084F891020120DB
:102CB000E3E70021206806F0B2FA20B1022084F890
:102CC00091020120D9E700252AE0012105EB8502C8
:102CD00004F1100000EBC200417005EB850104F126
:102CE000100000F83150002105EB850200EBC20016
:102CF000C17005EB850204F1100000EBC200016118
:102D000005EB850204F1100000EBC200416105EB08
:102D1000850204F1100000EBC2008161681CC5B29D
:102D20002079A842D1DC00252AE0002105EB8502AC
:102D300004F5A87000EBC200417005EB850104F5B5
:102D4000A87000F83150002105EB850200EBC200AD
:102D5000C17005EB850204F5A87000EBC2000161AB
:102D600005EB850204F5A87000EBC200416105EB9C
:102D7000850204F5A87000EBC2008161681CC5B231
:102D80002079A842D1DC94E80F0005F0FBFB20B1CC
:102D9000022084F8910201206FE700206073012077
:102DA00084F89102206805F0EAFB002065E7000046
:102DB00038B504461149206888421DD100BF10482B
:102DC000C06940F400000E49C8610846C06900F4BB
:102DD0000000009000BF00BF002201211320FFF778
:102DE0003DF91320FFF72AF9002201211420FFF7F3
:102DF00035F91420FFF722F938BD0000005C0040CF
:102E00000010024070B504460125A079022801D0C7
:102E1000FEF748F82946D4F8D40204F0E6FCD4F8CA
:102E2000D40204F097FC70BD10B50446D4F8D40267
:102E300004F0BFFC10BD10B50446D4F8D40204F071
:102E4000C3FC10BD70B504460D4600BF94F8900257
:102E5000012801D1022070BD012084F8900200BF3A
:102E600065732946206806F0DDF900BF002084F86C
:102E7000900200BF00BFEEE710B5044604F52671CE
:102E8000D4F8D40204F0C8FC10BD10B5044600BF4D
:102E900094F89002012801D1022010BD012084F88D
:102EA000900200BF206806F048F901212046FFF794
:102EB00049F9206805F060FB00BF002084F890020B
:102EC00000BF00BFE9E7000010B50446D4F8D40203
:102ED00004F0FAFCA07A28B10348006840F006002C
:102EE0000149086010BD000010ED00E02DE9F04739
:102EF00006464FF00008002500270024A146012EB9
:102F000031D0022E56D0102E5FD13248446800686E
:102F100000F0807008B33048C4F38341475C04F488
:102F2000803078B12B484068C0F340402B4911F8FD
:102F3000008004F4803040B12948B0FBF8F000FB79
:102F400007F502E0274807FB00F52248406800F437
:102F50008000B0F5800F01D1A94603E0680003218D
:102F6000B0FBF1F932E01B48046A04F44070B0F59C
:102F7000807F05D104F0020010B14FF4004918E041
:102F800004F44070B0F5007F07D11248406A00F0A9
:102F9000020010B149F640490BE004F44070B0F56E
:102FA000407F06D10B48006800F4003008B14FF2B2
:102FB00024490BE000F08CF906494968C1F38131DE
:102FC000491C4900B0FBF1F900E000BF00BF4846D2
:102FD000BDE8F08700100240629A0008729A00086B
:102FE00000127A0000093D00F8B5044600260025CD
:102FF000207800F0010000286BD000274348C0690A
:1030000000F0805070B900BF4048C06940F0805067
:103010003E49C8610846C06900F08050009000BF7A
:1030200000BF01273A48006800F48070B0B9384802
:10303000006840F4807036490860FEF789FF064654
:1030400006E0FEF785FF801B642801D90320F8BD48
:103050002F48006800F480700028F2D02B48006AE6
:1030600000F440752DB3A08800F44070A84220D031
:103070002648006A20F44075012026490860002097
:1030800008602248056205F0010090B1FEF760FF7C
:10309000064608E0FEF75CFF801B41F2883188425B
:1030A00001D90320D3E71948006A00F00200002884
:1030B000F0D01648006A20F4407061680843134954
:1030C0000862012F04D10846C06920F08050C86111
:1030D00000BF207800F00200022807D10B484068AA
:1030E00020F44040A168084308494860207800F077
:1030F0001000102807D10548406820F48000E168DE
:103100000843024948600020A1E700000010024087
:10311000007000404004424270B504460D460CB9B0
:10312000012070BD5A48006800F00700A8420ED286
:103130005748006820F007002843554908600846B2
:10314000006800F00700A84201D00120E9E72078DC
:1031500000F0020002281DD1207800F004000428AD
:1031600005D14C48406840F4E0604A494860207806
:1031700000F00800082805D14648406840F4605037
:10318000444948604348406820F0F000A168084383
:1031900040494860207800F0010078B36068012859
:1031A00006D13C48006800F4003090B90120B8E72F
:1031B0006068022806D13748006800F0007040B906
:1031C0000120AEE73348006800F0020008B9012092
:1031D000A7E73048406820F00300616808432D49A4
:1031E0004860FEF7B5FE064609E0FEF7B1FE801B1B
:1031F00041F28831884202D9032092E707E025484E
:10320000406800F00C006168B0EB810FEDD1204800
:10321000006800F00700A8420ED91D48006820F0A1
:10322000070028431A4908600846006800F00700B4
:10323000A84201D0012074E7207800F0040004289F
:1032400007D11448406820F4E060E1680843114960
:103250004860207800F00800082808D10D48406830
:1032600020F46050216940EAC1000A49486000F03A
:103270003FF808494968C1F30311074A515CC84047
:103280000649086006480068FEF788FE002048E707
:103290000020024000100240749A0008E80100205B
:1032A000E00100200148006870470000E8010020AC
:1032B00000B5FFF7F7FF04494968C1F30221034A4B
:1032C000515CC84000BD000000100240849A000814
:1032D00000B5FFF7E7FF04494968C1F3C221034A7B
:1032E000515CC84000BD000000100240849A0008F4
:1032F00070B500210022002400230020134D6968CE
:1033000001F00C05F5B1042D02D0082D19D101E012
:103310000F4819E00F4DC1F38346AB5D01F48035D2
:1033200055B10A4D6D68C5F340450B4E725D084DB1
:103330005D43B5FBF2F402E0084D03FB05F42046C3
:1033400002E000BF024800BF00BF70BD0010024095
:1033500000127A00509A0008609A000800093D00A7
:10336000F8B504460CB90120F8BD207800F0010042
:10337000002878D0F848406800F00C0004280CD0F1
:10338000F548406800F00C00082811D1F248406868
:1033900000F48030B0F5803F0AD1EF48006800F4B7
:1033A000003000285FD0606800285CD10120DBE796
:1033B00000BF6068B0F5803F06D1E748006840F480
:1033C0008030E549086028E0606858B9E248006844
:1033D00020F48030E04908600846006820F480202E
:1033E00008601AE06068B0F5A02F0BD1DA480068D9
:1033F00040F48020D84908600846006840F48030D6
:1034000008600AE0D448006820F48030D24908609F
:103410000846006820F48020086000BF606888B11A
:10342000FEF796FD054606E0FEF792FD401B642878
:1034300001D9032098E7C848006800F4003000284C
:10344000F2D010E0FEF784FD054606E0FEF780FDB1
:10345000401B642801D9032086E7BF48006800F4B8
:1034600000300028F2D1207800F00200022857D165
:10347000B948406800F00C0050B1B748406800F00F
:103480000C00082818D1B448406800F4803098B97E
:10349000B148006800F0020020B12069012801D085
:1034A000012061E7AC48006820F0F800616940EA5B
:1034B000C100A949086033E02069E8B10120A749AB
:1034C0000860FEF745FD054606E0FEF741FD401B9E
:1034D000022801D9032047E79F48006800F0020056
:1034E0000028F2D09C48006820F0F800616940EAAA
:1034F000C1009949086013E0002098490860FEF770
:1035000027FD054606E0FEF723FD401B022801D9F2
:10351000032029E79048006800F002000028F2D15B
:10352000207800F0080008282DD1A069B8B101204A
:103530008B490860FEF70CFD054606E0FEF708FD26
:10354000401B022801D903200EE78348406A00F09F
:1035500002000028F2D0012002F024FF13E0002036
:103560007F490860FEF7F4FC054606E0FEF7F0FC34
:10357000401B022801D90320F6E67748406A00F094
:1035800002000028F2D1207800F00400042873D152
:1035900000277148C06900F0805070B900BF6E48C4
:1035A000C06940F080506C49C8610846C06900F0AD
:1035B0008050009000BF00BF01276A48006800F4F7
:1035C0008070B0B96748006840F480706549086051
:1035D000FEF7BEFC054606E0FEF7BAFC401B642879
:1035E00001D90320C0E65F48006800F4807000281D
:1035F000F2D000BFE068012806D15748006A40F0C9
:1036000001005549086227E0E06858B95248006A4D
:1036100020F00100504908620846006A20F00400CA
:10362000086219E0E06805280BD14B48006A40F0B9
:103630000400494908620846006A40F00100086237
:103640000AE04548006A20F0010043490862084644
:10365000006A20F00400086200BFE068A0B1FEF735
:1036600077FC054609E0FEF773FC401B41F2883108
:10367000884202D9032077E622E03748006A00F04A
:1036800002000028EFD012E0FEF762FC054608E0D9
:10369000FEF75EFC401B41F28831884201D90320CD
:1036A00062E62D48006A00F002000028F0D1012FE8
:1036B00005D12948C06920F080502749C86100BF62
:1036C000E069C8B32448406800F00C00082860D0C6
:1036D000E069022848D1002020490866FEF738FC3E
:1036E000054606E0FEF734FC401B022801D9032002
:1036F0003AE61948006800F000700028F2D1206A0C
:10370000B0F5803F07D11448406820F40030A1682C
:10371000084311494860D4E9080108430E49496843
:1037200021F4741108430C49486001200B490866D4
:10373000FEF70EFC054607E03DE0FEF709FC401BE6
:10374000022801D903200FE60348006800F000704A
:103750000028F2D02FE0000000100240000042429A
:103760008004424200700040002014490866FEF7C1
:10377000EFFB054606E0FEF7EBFB401B022801D9F4
:103780000320F1E50E48006800F000700028F2D137
:1037900011E0E069012800D1E6E50948466806F431
:1037A0008031206A814204D106F47011606A81423E
:1037B00001D00120D8E50020D6E5000000004242FB
:1037C0000010024010B504460CB9012010BD606A1B
:1037D00038B96068B0F5827F00D105E00021E16171
:1037E00002E00021216161610021A16294F8510091
:1037F00028B9002084F85000204600F043F8022049
:1038000084F851002068006820F0400021680860BA
:10381000A08800F48270218901F404410843A18941
:1038200001F400610843217C01F002010843217D7D
:1038300001F001010843218B01F400710843217F4D
:1038400001F0380108432021095D01F0800108439F
:10385000218D01F400510843216808600421A0690A
:1038600001EA1040216848602068C06920F40060C7
:103870002168C86100206065012084F851000020A3
:10388000A4E7000010B586B0044600200290039023
:10389000049005901949206888422DD100BF18482E
:1038A000806940F48050164988610846806900F4B8
:1038B0008050019000BF00BF00BF0846806940F003
:1038C000040088610846806900F00400019000BF90
:1038D00000BFB0200290022003900320059002A9AF
:1038E0000848FEF797F940200290002003900490CA
:1038F00002A90448FEF78EF906B010BD0030014061
:10390000001002400008014070B504462546681EBC
:10391000B0F1807F01D301200FE0681E4FF0E0215D
:1039200048610F214FF0FF3005F00EFD00204FF0F1
:10393000E021886107200861002070BD7047704752
:1039400010B50346002200BF93F83C00012801D1C6
:10395000022010BD012083F83C0000BF22F0FF00D0
:10396000CC6840EA040222F440708C6840EA040209
:1039700022F480604C6840EA040222F400600C6883
:1039800040EA040222F480500C6940EA040222F466
:1039900000504C6940EA040222F48040CC6940EABD
:1039A00004021868426400BF002083F83C0000BF96
:1039B00000BFCEE730B502460B4600BF92F83C0090
:1039C000012801D1022030BD012082F83C0000BF57
:1039D000022082F83D00106844681068816824F075
:1039E00070041868044310684460104D1068A842C1
:1039F0000BD01068B0F1804F07D00D4D1068A84271
:103A000003D00C4D1068A84205D121F08001586800
:103A1000014310688160012082F83D0000BF002052
:103A200082F83C0000BF00BFCDE70000002C014041
:103A3000000400400008004070B504460D4615B96A
:103A400094F842000BE0042D02D14320005D06E013
:103A5000082D02D14420005D01E04520005D0128D1
:103A600001D0012070BD1DB9022084F842000EE093
:103A7000042D03D102214320015508E0082D03D174
:103A800002214420015502E0022145200155042273
:103A90002946206802F025FE2068406C40F4004072
:103AA000216848641249206888420BD02068B0F130
:103AB000804F07D00F492068884203D00E49206804
:103AC00088420CD12068806800F00706062E0CD0D2
:103AD0002068006840F001002168086005E0206867
:103AE000006840F00100216808600020BAE700008B
:103AF000002C0140000400400008004010B50446BE
:103B00000CB9012010BD94F83D0028B9002084F8BC
:103B10003C00204600F026F8022084F83D00211DDC
:103B2000206802F08BFD012084F8460000BF84F875
:103B30003E0001213F200155402001554120015503
:103B400000BF00BF012084F84200432001554420FB
:103B500001554520015500BF012084F83D0000209B
:103B6000D0E7000010B586B0044600200290039014
:103B7000049005904F49206888420DD100BF4E48FF
:103B8000806940F400604C4988610846806900F40F
:103B90000060019000BF8BE02068B0F1804F39D108
:103BA00000BF4548C06940F001004349C86108466C
:103BB000C06900F00100019000BF00BF00BF0846CF
:103BC000806940F0040088610846806900F00400C4
:103BD000019000BF00BF4FF400400290002003900E
:103BE0000120049002A93548FEF714F800BF3449BB
:103BF000486820F4407040F0E06040F48070486015
:103C000000BF002211461C20FEF728FA1C20FEF7F8
:103C100015FA4DE02B492068884237D100BF26486D
:103C2000C06940F002002449C8610846C06900F03C
:103C30000200019000BF00BF00BF0846806940F04D
:103C4000080088610846806900F00800019000BF04
:103C500000BF1020029000200390049002A91A488F
:103C6000FDF7D8FF00BF1649486820F4406040F0D7
:103C7000E06040F40060486000BF002201211D2088
:103C8000FEF7ECF91D20FEF7D9F911E00F49206885
:103C900088420DD100BF0848C06940F004000649C1
:103CA000C8610846C06900F00400019000BF00BF71
:103CB00006B010BD002C0140001002400008014079
:103CC0000000014000040040000C014000080040DA
:103CD000014691F83D00012801D0012070470220E3
:103CE00081F83D000868C06840F001000B68D860AA
:103CF000124B086898420BD00868B0F1804F07D08B
:103D00000F4B0868984203D00E4B086898420CD1BC
:103D10000868806800F00702062A0CD0086800686E
:103D200040F001000B68186005E00868006840F08A
:103D300001000B6818600020D0E70000002C014053
:103D400000040040000800402DE9F04104460D4603
:103D5000002700BF94F83C00012802D10220BDE8F2
:103D6000F081012084F83C0000BF022084F83D006F
:103D70002068866826F0770626F47F4620688660ED
:103D80002868502833D00CDC202850D004DC0028D0
:103D90004BD0102851D149E0302849D040284CD18F
:103DA00039E060282DD0702807D0B0F5805F03D0AF
:103DB000B0F5005F41D10DE041E0D5E902136A683A
:103DC000206802F09FFC2068866846F0770620682D
:103DD000866034E0D5E902136A68206802F092FC3C
:103DE0002068806840F480402168886027E0EA68A5
:103DF0006968206802F056FD5021206802F08DFCB1
:103E00001DE0EA686968206802F094FD602120687E
:103E100002F083FC13E0EA686968206802F042FD62
:103E20004021206802F079FC09E000BF00BF00BF1C
:103E30002968206802F071FC01E0012700BF00BF83
:103E4000012084F83D0000BF002084F83C0000BF42
:103E5000384684E72DE9F04104468E4884427DD1FE
:103E6000207F02282CD18C48007848B90421894849
:103E700000F002FD8949086001208749087012E0BE
:103E80008548007801280ED10421824800F0F4FC16
:103E900083490860814800680968084481490860CE
:103EA00000207D4908707B4800680069C0F340002D
:103EB00000287BD06FF0020076490968086175E040
:103EC000207F012872D10020724909684862714838
:103ED00000680069C0F3800020B16FF004006D49F4
:103EE000096808616C480078012806D100216948FA
:103EF00000F0C2FC6C49086058E067480078002870
:103F000054D10021634800F0B7FC68490860664856
:103F1000006809680844664908600846006841F678
:103F20001461884229D96248006842F28C31884283
:103F300023D25C480068B0F57A7F1ED95C480068DF
:103F4000FCF796F9064631465A48FCF753F9054600
:103F500057480068FCF78CF9074600E02BE0514811
:103F60000068FCF785F980463946FCF743F90646B8
:103F70005149FCF70DF95149086051492846FCF7B1
:103F8000C9F913D24F492846FCF7BAF90ED24E4868
:103F900005604E4949480068FCF7B2F903D247482A
:103FA00000684B49086000204A4908706FF0010022
:103FB000216808616BE04848844268D16FF00100D5
:103FC00021680861207F012816D10021424800F0B5
:103FD00053FC4249086008460068B0F5FA6F03D800
:103FE00008460068962802D200203D49087000204B
:103FF00039490968486229E0207F022826D1042136
:10400000354800F039FC3749086008460068E8B1D7
:10401000354800884FF6FF7101EA400032490880B8
:104020003048006840F26221884204D22E4800885D
:104030002D49088005E02C48008840F001002A49FD
:10404000088027480078401C2549087024480078DB
:104050000C281CD100202249087023480088C0F396
:104060000B00224908802248007880B90846008861
:1040700020490988884206D101201D4908701B4843
:1040800000881D490880194800881A490880BDE841
:10409000F08100002C040020D40000209C000020AF
:1040A000A000002098000020900000209400002034
:1040B0008C0000200024F4480000C842D8000020F2
:1040C00000005C4200008242B00000200000B442C8
:1040D000AC000020B400002074040020A4000020E4
:1040E000C0000020A8000020C8000020C60000205A
:1040F000D5000020C4000020C20000202DE9F041BE
:1041000004460D461646002700BF94F83C000128DF
:1041100002D10220BDE8F081012084F83C0000BFFC
:1041200096B9EB68D5E90012206802F0CFFB206851
:10413000806920F00C002168886120688069A96886
:1041400008432168886141E0042E13D1EB68D5E96A
:104150000012206802F002FC2068806920F44060B0
:104160002168886120688069A96840EA0120216887
:1041700088612BE0082E12D1EB68D5E90012206887
:1041800002F009FC2068C06920F00C002168C861B9
:104190002068C069A96808432168C86116E00C2E30
:1041A00013D1EB68D5E90012206802F010FC2068FA
:1041B000C06920F440602168C8612068C069A968AE
:1041C00040EA01202168C86100E0012700BF00200B
:1041D00084F83C0000BF38469CE710B504460CB993
:1041E000012010BD94F83D0028B9002084F83C005F
:1041F000204600F025F8022084F83D00211D2068AB
:1042000002F01CFA012084F8460000BF84F83E004A
:1042100001213F200155402001554120015500BF9B
:1042200000BF012084F8420043200155442001557D
:104230004520015500BF012084F83D000020D0E753
:10424000704700002DE9F04304460D46002615B9DD
:1042500094F83E000BE0042D02D13F20005D06E003
:10426000082D02D14020005D01E04120005D804624
:1042700015B994F842000BE0042D02D14320005DF3
:1042800006E0082D02D14420005D01E04520005DDC
:104290008146B8F1010F02D1B9F1010F02D001201E
:1042A000BDE8F0831DB9022084F83E000EE0042D25
:1042B00003D102213F20015508E0082D03D102213E
:1042C0004020015502E00221412001551DB9022084
:1042D00084F842000EE0042D03D102214320015551
:1042E00008E0082D03D102214420015502E00221FB
:1042F0004520015535B1042D0BD0082D10D00C2DC3
:104300001CD114E02068C06840F002002168C86039
:1043100016E02068C06840F004002168C8600FE023
:104320002068C06840F008002168C86008E0206884
:10433000C06840F010002168C86001E0012600BF9D
:1043400000BF06BB01222946206802F0B9F91249D4
:10435000206888420BD02068B0F1804F07D00F4909
:104360002068884203D00E49206888420CD120681A
:10437000806800F00707062F0CD02068006840F026
:1043800001002168086005E02068006840F0010035
:1043900021680860304683E7002C0140000400409B
:1043A0000008004070B504462068C56820680669AA
:1043B00006F00200022819D105F00200022815D1EA
:1043C000401F21680861012020772068806900F083
:1043D000030018B12046FFF73DFD05E0204600F040
:1043E000E3F8204600F097F90020207706F004005B
:1043F000042819D105F00400042815D1C043216810
:104400000861022020772068806900F4407018B1AC
:104410002046FFF71FFD05E0204600F0C5F82046C6
:1044200000F079F90020207706F00800082819D15B
:1044300005F00800082815D1C04321680861042050
:1044400020772068C06900F0030018B12046FFF70C
:1044500001FD05E0204600F0A7F8204600F05BF9DA
:104460000020207706F01000102819D105F0100068
:10447000102815D1C04321680861082020772068E2
:10448000C06900F4407018B12046FFF7E3FC05E076
:10449000204600F089F8204600F03DF90020207702
:1044A00006F0010048B105F0010030B16FF00100E5
:1044B00021680861204600F099F906F08000802804
:1044C00009D105F08000802805D1C043216808612A
:1044D0002046FFF733FA06F04000402809D105F0E6
:1044E0004000402805D1C04321680861204600F003
:1044F000DCF906F02000202809D105F02000202852
:1045000005D1C043216808612046FFF718FA70BD45
:1045100010B586B0044600200290039004900590E8
:104520001D492068884218D100BF1C48806940F0AE
:1045300008001A4988610846806900F00800019067
:1045400000BF00BF4FF4604002900220039005902E
:1045500002A91348FDF75EFB1BE012492068884260
:1045600017D100BF0D48806940F008000B498861F1
:104570000846806900F00800019000BF00BFC0201D
:104580000290022003900120059002A90448FDF743
:1045900041FB06B010BD0000002C0140001002409D
:1045A000000C01400008004070472DE9F04104462E
:1045B0000D461646002700BF94F83C00012802D1A2
:1045C0000220BDE8F081012084F83C0000BF36B134
:1045D000042E1BD0082E31D00C2E5ED145E029468A
:1045E000206802F0A3F82068806940F00800216884
:1045F00088612068806920F0040021688861206853
:104600008069296908432168886148E02946206853
:1046100002F0BCF82068806940F40060216888617D
:104620002068806920F48060216888612068806942
:10463000296940EA01202168886130E02946206824
:1046400002F0D8F82068C06940F008002168C8610D
:104650002068C06920F004002168C8612068C06932
:10466000296908432168C86119E02946206802F0D9
:10467000F5F82068C06940F400602168C8612068CE
:10468000C06920F480602168C8612068C069296918
:1046900040EA01202168C86101E0012700BF00BF96
:1046A00000BF002084F83C0000BF384689E710B501
:1046B00004460CB9012010BD94F83D0028B9002033
:1046C00084F83C00204600F025F8022084F83D00E4
:1046D000211D206801F0B2FF012084F8460000BFD0
:1046E00084F83E0001213F20015540200155412022
:1046F000015500BF00BF012084F84200432001554E
:10470000442001554520015500BF012084F83D009B
:104710000020D0E77047704770B504460D4615B9C4
:1047200094F83E000BE0042D02D13F20005D06E02E
:10473000082D02D14020005D01E04120005D0128EC
:1047400001D0012070BD1DB9022084F83E000EE0AA
:10475000042D03D102213F20015508E0082D03D18B
:1047600002214020015502E0022141200155012291
:104770002946206801F0A4FF19492068884201D128
:10478000012000E0002028B12068406C40F4004087
:10479000216848641249206888420BD02068B0F133
:1047A000804F07D00F492068884203D00E49206807
:1047B00088420CD12068806800F00706062E0CD0D5
:1047C0002068006840F001002168086005E020686A
:1047D000006840F00100216808600020B2E7000096
:1047E000002C0140000400400008004010B50446C1
:1047F000184884420AD16FF0010021680861002046
:1048000015490870154908801549088015488442E3
:104810001ED10122D1021448FDF794FB6FF0010074
:104820002168086111480078401C1049087008464A
:10483000007805280CD100200D4908600D4908605A
:104840000A49087000224FF400610748FDF77AFB1F
:1048500010BD000074040020D5000020C600002018
:10486000C40000202C040020000C0140B4000020F3
:10487000AC000020B00000200246002031B1042925
:1048800007D0082908D00C290CD108E01368586B10
:1048900009E01368986B06E01368D86B03E01368AF
:1048A000186C00E000BF00BF7047704710B50446A9
:1048B0000CB9012010BDA06900B100E000BF94F860
:1048C000410028B9002084F84000204600F02AF872
:1048D000242084F841002068C06820F4005021683A
:1048E000C860204602F092F82068006920F49040E9
:1048F000216808612068406920F02A002168486129
:104900002068C06840F400502168C86000206064DE
:10491000202084F8410084F842000020606300BF3A
:10492000C8E7000010B586B004460020029003904E
:10493000049005901A49206888422ED100BF19487A
:10494000806940F48040174988610846806900F416
:104950008040019000BF00BF00BF0846806940F062
:10496000040088610846806900F00400019000BFDF
:1049700000BF48150290022003900320059002A971
:104980000948FDF747F94FF480600290002003903A
:10499000049002A90448FDF73DF906B010BD0000DF
:1049A00000380140001002400008014010B5754871
:1049B000C07A00287BD074480078002878D17348EA
:1049C0004068012874D972480078002843D07148A3
:1049D000007810B101282BD110E06D480078022832
:1049E0000BD10122C1016C48FDF7ACFA01206949E5
:1049F00008700121092000F0EDFD2BE064480078EB
:104A0000042803D062480078052810D100224FF412
:104A100080716148FDF796FA00205E4908700846EB
:104A20004078012803D00021092000F0D3FD11E0D7
:104A300000224FF480715848FDF784FA0020554950
:104A4000087008464078012803D00021092000F0B2
:104A5000C1FD00BF10E000224FF480714E48FDF709
:104A600071FA00204B49087008464078012803D0AD
:104A70000021092000F0AEFD45484078002845D0CF
:104A80004448407810B101282DD112E040484078C8
:104A900002280BD1012201034048FDF753FA0120FF
:104AA0003C4948700121092000F094FD2DE054E0BC
:104AB0003EE037484078042803D035484078052840
:104AC00010D100224FF400513448FDF73BFA00208A
:104AD0003049487008460078012803D00021092099
:104AE00000F078FD11E000224FF400512B48FDF753
:104AF00029FA00202749487008460078012803D089
:104B00000021092000F066FD00BF3AE000224FF4CA
:104B100000512248FDF716FA00201E494870084649
:104B2000007801282DD00021092000F053FD28E055
:104B300000224FF480711848FDF704FA00224FF468
:104B400000511648FDF7FEF9002012490870487020
:104B50000021092000F03EFD13E000224FF4807197
:104B60000D48FDF7EFF900224FF400510B48FDF717
:104B7000E9F900200749087048700021092000F079
:104B800029FD10BD4C05002000010020040100207B
:104B9000DD00002057010020000C01400010014002
:104BA00000BFFEE710B5F748008800287ED0F54822
:104BB000008840F6C252811A904278D027DC40F635
:104BC000A252A0EB0201904272D013DC40F6885250
:104BD000A0EB020190426CD007DCB0F5586F33D0E7
:104BE000A0F68250002875D145E0182973D0192904
:104BF000F9D148E103296FD004DC01296DD00229E5
:104C0000F1D176E11E296AD01F29ECD14AE21F2991
:104C10007ED00CDC08297CD004DC01297AD007295D
:104C2000E1D1F7E1092976D01E29DCD187E12E29CF
:104C300072D004DC222970D02329D4D1CDE13029CF
:104C40006CD03129CFD166E20020CE490880CE4811
:104C5000007818B1CC48007805280BD10020CB494A
:104C6000C873FCF7EBF900BFC94800780028FBD1F6
:104C700004F07EFB5EE20020C2490880C248007852
:104C800060BBC248817A012000F096FD012001F04E
:104C90009DFBC0484068C04908600121032000F026
:104CA00099FC00BFBA480078002803E047E20CE214
:104CB000FAE059E0F6D10220B34908700020B74964
:104CC0000860FDF745F9B6490860FDF741F9B549B7
:104CD000086048E02AE2C5E0F8E01DE100E0CEE12E
:104CE000A9480078022803D0A748007803282FD1CC
:104CF0000021084600F060FD002001F067FB002164
:104D0000032000F067FC0021022000F063FC06E0B5
:104D100026E190E1ECE1A1E163E149E165E10021F7
:104D2000012000F057FC00209849C87300BF984844
:104D300000780028FBD1FCF781F900209749086032
:104D4000FDF706F99649086000208F4908700AE0CF
:104D50008D480078052806D1642093490968886346
:104D6000012001F033FBE5E10020864908808648F8
:104D70000078E8BB8D480078032803D08B48007882
:104D8000042825D18148817A012000F015FD0120F9
:104D900001F01CFB7F4840687F4908600121022028
:104DA00000F018FC01207949C87300BF78480078EA
:104DB0000028FBD1FCF742F90020764948720872BE
:104DC000032071490870FDF7C3F87649086048E090
:104DD00076480078E8BB0121084600F0FBFB012083
:104DE0006A49C87300BF6A4800780028FBD100E018
:104DF00002E0FCF723F934E063480078022803D08E
:104E00006148007803282CD10021084600F0D4FC2A
:104E1000002001F0DBFA0021032000F0DBFB002181
:104E2000022000F0D7FB0021012000F0D3FB564800
:104E30000078032809D100205449C87300BF5448A2
:104E400000780028FBD1FCF7F9F8002053490860EE
:104E500000E006E0FDF77CF85149086000204A496F
:104E6000087067E14848007860B90020454908802B
:104E700001204649087300BF454800780028FBD14F
:104E8000FCF7DCF856E100203E4908803E480078F7
:104E900048B900203D49087300BF3D48007800280C
:104EA000FBD1FCF7CBF845E10020364908803648B5
:104EB000007850B900203549A1F80D0000BF3448F2
:104EC00000780028FBD1FCF7B9F833E12E480078D0
:104ED00070B900202B4908804FF496702B49A1F837
:104EE0000D0000BF2A4800780028FBD1FCF7A6F887
:104EF00020E12548007870B90020224908804FF44D
:104F000016702249A1F80D0000BF21480078002842
:104F1000FBD1FCF793F80DE100201A4908801A48EC
:104F2000007858B94FF461701849A1F80D0000BF1E
:104F3000174800780028FBD1FCF780F8FAE0002041
:104F4000104908801048007848B901200F49C872FC
:104F500000BF0F4800780028FBD1FCF76FF8E9E0AC
:104F60000020084908800848007848B9002007490F
:104F7000C87200BF064800780028FBD1FCF75EF835
:104F8000D8E00000C2000020000100204C050020F5
:104F9000D500002004010020B8000020F40000200B
:104FA000EC00002034010020BC040020DC000020C4
:104FB0000020634908806348007868B91822624974
:104FC0006248FBF7C1F800BF614800780028FBD1B8
:104FD000FCF734F804F0CCF9ACE000205849088024
:104FE000A8E0002056490880A4E000205449088029
:104FF0005448007830B900205649087005205149BE
:10500000087006E04F480078052802D100204D497D
:1050100008708FE000204A4908804A48007848B963
:1050200010204A49487200BF494800780028FBD147
:10503000FCF704F87EE000204149088041480078F0
:1050400058B90020088020204049487200BF4048DD
:1050500000780028FBD1FBF7F1FF6BE00020384916
:1050600008803848007848B940203849487200BF65
:10507000374800780028FBD1FBF7E0FF5AE000201A
:105080002F4908802F48007858B904202F4988728A
:1050900000BF2F4800780028FBD1FBF7CFFF00F0BE
:1050A0007DF847E00020264908802648007858B956
:1050B00008202649887200BF254800780028FBD1C7
:1050C000FBF7BCFF00F06AF834E000201C490880C0
:1050D0001C48007858B910201C49887200BF1C4831
:1050E00000780028FBD1FBF7A9FF00F057F821E07A
:1050F0000020134908801348007858B9002013494C
:10510000887200BF124800780028FBD1FBF796FF99
:1051100000F044F80EE000200949088000224FF416
:1051200080510D48FCF70EFF00BFFEE70020044948
:10513000088000BF00BF0121002000F04BFA10BD25
:10514000C200002000010020120100204C050020B8
:10515000D500002030010020000C014030B50B4686
:10516000002100BF16E00A24B4EB107F05D93024DB
:1051700004EB107403F8114005E0412404EB1074B3
:105180000A3C03F81140000100254C00641C1D5529
:105190004C1CE1B29142E6DB30BD000010B53A484C
:1051A000006940F68C21884208D2384800693849A5
:1051B0000860364840693749086057E03348817ACB
:1051C000012000F0F9FA012001F000F940F2DC5072
:1051D000FCF7FEFA002400202D49086000BF0BE018
:1051E000294840682A49096808442949086002207A
:1051F000FCF7EEFA601CC4B2042CF1DB2448006812
:1052000080082349086008460068782801D20020F9
:1052100008601F4800681D49086100240BE01A4817
:1052200000681C49096808441A4908600220FCF714
:10523000CFFA601CC4B2042CF1DB16480068800869
:105240001449086008460068782801D200200860E8
:10525000104800680D4948610021084600F0ACFA8A
:10526000002001F0B3F8FBF7E9FE00BF0948006831
:10527000962805D20020084908700649086002E017
:1052800001200549087010BD000300204C050020D6
:1052900040010020440100206401002000B54A487C
:1052A00000680079FF286FD047480068007900281F
:1052B000F9D04648007820B1012826D002287DD1B7
:1052C00053E0434800884349098888421CDD002098
:1052D00041490968C8634049096848633F48007804
:1052E000012805D13E4800883B490968886303E0EE
:1052F00000203949096888633A480078401E3949D6
:1053000008700120314908705CE031480088364956
:105310000988884228DD33480078002814DD3048A9
:1053200000882D490968C863304800882A490968FF
:1053300088632F4800882849096848630020244969
:105340000880224908700FE024480078012803D122
:1053500000202149096888630020224908701C49FF
:1053600008800220194908702CE01948008821495A
:105370000988884224DD2048007830B900211F4880
:10538000007800F027F91BE01DE01548008812495D
:105390000968C863154800880F490968886314487C
:1053A00000880D49096848630748006800790D497D
:1053B0000870002006490880044900E001E00870F8
:1053C00000E000BF00BF00BD6400002068000020B6
:1053D000000000206A000020E4030020700000208C
:1053E00072000020690000206C0000207400002082
:1053F000760000206E00002085000020780000204C
:1054000063490978884200D17047624901EBC001C5
:10541000614A11601146096809785D4A11705E4958
:10542000096809795D4A11705B490968C9785C4A65
:1054300011705949096889785A4A11705449097894
:10544000012902D1584A11700CE05149097831B94B
:105450005649097819B10221534A117002E000211E
:10546000514A11704C4909684979C900504A118064
:1054700049490968C979C9004E4A118044490978E7
:10548000092909D1444A12689279D10001EBD172FD
:105490005210494B1A800FE043490978022905D17F
:1054A0000021454A1180434A118005E03A490968C4
:1054B0008979C900404A118039490978012915D1F3
:1054C00039490978012908D14FF416713B4A1180F6
:1054D0004FF47A713A4A118029E04FF49661374AC5
:1054E00011804FF4FA61364A118020E02C49097886
:1054F00099B92A490978FF2906D14FF496712F4AA4
:1055000011802F4A118012E04FF496712B4A1180BE
:105510004FF4FA712A4A118009E0214909780229D9
:1055200005D14B21254A11807D21254A11801B4937
:105530000978FF2903D10021224A118012E017497E
:105540000978012903D10A211E4A11800AE0104975
:10555000097819B9C8211B4A118003E04FF4FA6198
:10556000184A118012490988174A1268D1631249F2
:105570000988154A126891630E490988124A12680F
:1055800051630021114A1180114A117000BF3BE79D
:105590007800002003000020640000206900002043
:1055A00084000020850000207000002059010020A8
:1055B0007200002076000020740000206A000020A5
:1055C0006C0000206E000020E4030020000000209A
:1055D0006800002070B506460C460C2E73D2DFE83A
:1055E00006F0060F18212A3A45505B6978881CB1ED
:1055F00001205249487002E000205049487089E07B
:105600001CB101214D48417202E000214B4841721A
:1056100080E01CB101214948417402E00021474863
:10562000417477E01CB101214448417602E0002139
:10563000424841766EE04CB10121404880F821108B
:10564000002180F8511080F8591003E000213B48F8
:1056500080F821105EE024B10121384880F829103B
:1056600003E00021354880F8291053E024B10121DE
:10567000324880F8311003E00021304880F83110C2
:1056800048E024B101212D4880F8391003E00021C1
:105690002A4880F839103DE03CB10121274880F8C4
:1056A0004110002180F8491003E00021234880F8D0
:1056B00041102FE044B10121204880F84910002119
:1056C00080F8411004E024E000211C4880F84910D3
:1056D00020E04CB10121194880F85110002180F8D8
:1056E000591080F8211003E00021144880F851106F
:1056F00010E04CB10121114880F85910002180F8C8
:10570000511080F8211003E000210C4880F8591056
:1057100000E000BF00BF002500BF0BE0074800EB22
:10572000C5004078012803D12846FFF769FE03E051
:10573000681CC5B20C2DF1DB00BF70BD030000205A
:1057400017480088592803D1154800881549088052
:10575000134800885A2822D311480088B0F5877F63
:105760001DD20F4800780F490978401A0E49087079
:10577000084600780D490978884210D10C48007815
:1057800020B10B480078401E09490870084800788D
:105790000849096888630248008802490880704700
:1057A000BC000020540100205601002051010020BF
:1057B00050010020BC0400202DE9F04107460E46B0
:1057C000002F38D0B046B8F1000F09D0B8F1040F5F
:1057D00008D0B8F1080F07D0B8F1100F08D105E0D4
:1057E000002406E01A2404E0302402E0562400E0FD
:1057F00000BF00BFA0000A2190FBF1F0144908701F
:1058000008460078B42191FBF0F012490870124864
:105810000470012291031148FCF794FB002507E076
:105820000F48006885630220FBF7D2FF681CC5B2F1
:10583000A542F5DB09E000224FF480410748FCF760
:1058400081FB0020064909688863BDE8F0810000FB
:1058500052010020510100205001002000100140A1
:10586000BC0400200EB500200090019002902E484C
:105870002E49086081152D488160012101730021A6
:1058800001754FF46021C16100202849486006215C
:1058900026480161FBF74AFD08B1FBF703FB002036
:1058A0000090012001900520029069461F48FBF7F7
:1058B00089FC08B1FBF7F6FA012000900220019064
:1058C00069461A48FBF77EFC08B1FBF7EBFA0220A9
:1058D00000900320019069461448FBF773FC08B15F
:1058E000FBF7E0FA032000900420019069460F487E
:1058F000FBF768FC08B1FBF7D5FA082000900520FB
:10590000019069460948FBF75DFC08B1FBF7CAFA4C
:10591000092000900620019069460448FBF752FCDC
:1059200008B1FBF7BFFA0EBD0024014018030020A8
:1059300008B500BF0648406940F0010004494861CD
:105940000846406900F00100009000BF00BF08BD9C
:105950000010024000B585B0002001900290039035
:10596000049000BF4F48806940F010004D498861A5
:105970000846806900F01000009000BF00BF00BF23
:105980000846806940F0200088610846806900F080
:105990002000009000BF00BF00BF0846806940F0B3
:1059A000040088610846806900F00400009000BF90
:1059B00000BF00BF0846806940F0080088610846C3
:1059C000806900F00800009000BF00BF00224FF483
:1059D00060413548FCF7B6FA00224FF4F8513348DD
:1059E000FCF7B0FA00224FF480713148FCF7AAFAB4
:1059F0004FF4604001900120029002200390049037
:105A000001A92948FCF706F94FF4406001900120F4
:105A10000290002003900120049001A92348FCF784
:105A2000F9F84FF498500190012002900020039063
:105A30000220049001A91D48FCF7ECF84FF4807097
:105A4000019001200290002003900220049001A9FF
:105A50001748FCF7DFF80820019016480290002054
:105A6000039001A91148FCF7D5F8202001901248B5
:105A700002900020039001A90C48FCF7CBF800220B
:105A800001210920FCF7EAFA0920FCF7D7FA0022E5
:105A900002211720FCF7E2FA1720FCF7CFFA05B035
:105AA00000BD00000010024000100140000C014049
:105AB00000080140000011100000211010B50E4830
:105AC0000E4908604FF48270486000210B488160E5
:105AD000C160016141614FF4802181611021C16188
