:020000040800F2
:10000000C81C002085020008A75300080F4E0008F6
:10001000A5530008F92700080F730008000000002E
:1000200000000000000000000000000075570008FC
:100030006D28000800000000555700087957000897
:100040009F0200089F0200089F0200089F0200080C
:100050009F0200089F0200089F0200089F020008FC
:100060009F0200089F0200089F0200089F020008EC
:100070009F0200089F0200089F0200089F020008DC
:100080009F0200089F0200089F02000835720008C6
:10009000997200089F0200089F0200089F02000852
:1000A0009F0200089F0200089F0200089F020008AC
:1000B00045580008515800089F0200089F02000898
:1000C0009F0200089F0200089F020008595700087D
:1000D0009F0200089F0200089F0200089F0200087C
:1000E0009F0200089F0200089F02000800F002F82B
:1000F00000F0B8F80AA090E8000C82448344AAF10A
:100100000107DA4501D100F0ADF8AFF2090EBAE807
:100110000F0013F0010F18BFFB1A43F0010318473B
:10012000AC760000CC7600000A444FF0000C10F8CA
:10013000013B13F0070408BF10F8014B1D1108BF65
:1001400010F8015B641E05D010F8016B641E01F805
:10015000016BF9D113F0080F1EBF10F8014BAD1C55
:100160000C1B09D16D1E58BF01F801CBFAD505E073
:1001700014F8016B01F8016B6D1EF9D59142D6D3CD
:10018000704700000023002400250026103A28BFF5
:1001900078C1FBD8520728BF30C148BF0B607047F9
:1001A0006E2900F04483702900F0AF86662907F0BD
:1001B0006682652907F06382672907F060826129FA
:1001C00007F05F8203681B0A28BF41F0800169299C
:1001D00000F01681642900F01381752900F0108168
:1001E0006F2900F03C86782900F07B86E92900F031
:1001F000D785E42900F0D485F52900F0D185EF29D1
:1002000000F03986F82900F07A860368DB0928BFF8
:1002100041F08001632901F09580732901F09A80F3
:10022000E32901F0A580F32901F0AA80002070479E
:100230001FB59DE8030001F07FFC00F071FE040093
:100240000020002107F07AF9401C606000200021A6
:1002500007F05EF9E06001F00DF91FBD10B501F087
:1002600072F910BD01F0FAF91146FFF7E1FF07F04E
:1002700087F801F0F3FB03B4FFF7F0FF03BC01F0D4
:10028000EDFD00000948804709480047FEE7FEE70A
:10029000FEE7FEE7FEE7FEE7FEE7FEE7FEE7FEE736
:1002A00004480549054A064B7047000041580008BC
:1002B000ED000008C8160020C81C0020C818002047
:1002C000C818002053EA020C00F069802DE9F04BB9
:1002D0004FF00006002B1FBFB3FA83F503FA05F4B5
:1002E00024FA05F65E4012BF1643B2FA82F502FA0E
:1002F00005F4C5F120051EBF22FA05FC44EA0C04F2
:10030000203556EA044C4FEA144418BF641C4FF0E1
:1003100000084FF00009904271EB030C39D300291B
:1003200019BFB1FA81F701FA07F6B0FA80F700FABF
:1003300007F6C7F120071EBF20FA07FC46EA0C06A5
:100340002037B6FBF4FCA7EB0507103F07F01F0BA7
:10035000CBF120060CFA0BFB2CFA06F644BFB34691
:100360000026202FA4BF5E464FF0000B5BEA060C70
:1003700008BF4FF0010B19EB0B09ABFB027C48EBFC
:100380000608C01B06FB02CC0BFB03CC71EB0C0177
:10039000C1E70B46024641464846BDE8F08B13B51F
:1003A0004FF000004FF00001AFF30080BDE81C40AB
:1003B000704700007CB51D4616460C00009001D029
:1003C0002044401E074B7B442A4669460190304634
:1003D00000F055FC05461CB10020694600F062FCA7
:1003E00028467CBDE50800000FB4044910B503AAF7
:1003F000029800F065FC10BC5DF814FBC0150020ED
:100400002DE9F0410646002410687529314616A5ED
:1004100010D000F078F9002802DA404213A507E076
:1004200031688A0701D512A502E0490704D511A554
:10043000012401E000F070F900210A2206F12407EE
:1004400009E0B0FBF2FCB0FBF2F302FB1C00303021
:1004500078541846491C0028F3D123462A463046D2
:10046000BDE8F04100F08AB9000000002D00000056
:100470002B000000200000002DE9F05F89460446B3
:100480004FF0000ADFF874B1FB44C0F820A020460A
:10049000E1688847002874D0252806D0D4E90121D6
:1004A0009047206A401C2062F1E700265F46204604
:1004B000E16888472028054607DB312D05D27819E9
:1004C00010F8200C08B10643F1E7B00701D526F07B
:1004D0000406C4F81CA00027C4F818A02A2D09D0CF
:1004E000284606F039FF38B304EB8708303DC8F8DA
:1004F000185019E059F8041B204604EB870291615B
:10050000E1688847012F054618D1E069002820DA04
:1005100026F020061DE0D8F8180000EB800005EB5F
:1005200040003038C8F818002046E1688847054682
:1005300006F012FF0028EED1012F0AD02E2D08D18F
:100540002046E16888477F1C0546022F46F02006BA
:10055000C4DBA069002803DA404246F00106A0612E
:10056000F00701D026F010066C2D0BD0682D09D0B5
:100570004C2D39D06A2D35D0742D35D07A2D33D00D
:1005800016E038E0E1682F4620468847B842054625
:1005900009D16C2F26D04FF48060E16806432046D5
:1005A0008847054604E06C2F1AD04FF4807006434C
:1005B0000DB3A5F14100192802D8203546F4006694
:1005C0004A462946204626604E46FFF7E9FD80B19F
:1005D00001280BD0F61D26F0070000F1080956E7A8
:1005E0004020E4E78020D8E70020D6E706F10409A0
:1005F0004DE7284652E7206ABDE8F09F36720000BA
:1006000010B5203AC0F00B80B1E81850203AA0E8AD
:100610001850B1E81850A0E81850BFF4F5AF5FEAE1
:10062000027C24BFB1E81850A0E8185044BF18C994
:1006300018C0BDE810405FEA827C24BF51F8043B3B
:1006400040F8043B08BF7047D20728BF31F8023B8F
:1006500048BF11F8012B28BF20F8023B48BF00F823
:10066000012B70474FF0000200B5134694469646A2
:10067000203922BFA0E80C50A0E80C50B1F12001B5
:10068000BFF4F7AF090728BFA0E80C5048BF0CC063
:100690005DF804EB890028BF40F8042B08BF7047C1
:1006A00048BF20F8022B11F0804F18BF00F8012B33
:1006B000704770477047704770B504468569006899
:1006C000C10601D5302600E02026C00707D070BD46
:1006D000D4E9012130469047206A401C20626D1EFB
:1006E000F6D570BD70B5044685690078C00707D19E
:1006F00070BDD4E9012120209047206A401C20626F
:100700006D1EF6D570BD09684A0501D540B2704727
:10071000C905FCD500B2704709684A0501D5C0B2C9
:100720007047C905FCD580B2704770B50C460546C8
:10073000012A05D02878800600D5EA69002302E066
:10074000012305E05B1C934202D2E05C0028F9D152
:10075000A869E618C01AA861286A184428622846C1
:10076000FFF7AAFF04E0D5E9012114F8010B904737
:10077000B442F8D32846FFF7B5FF70BD2DE9F04726
:100780000D4699469246044600F124080168880601
:1007900004D5E06921F01001216000E00120A842A9
:1007A00001DD471B00E00027A1697A1902EB09006F
:1007B000081AA0612078C00602D42046FFF77CFF0B
:1007C000002608E0D4E901211AF806009047206AC3
:1007D000401C761C20624E45F4DB2078C0060AD50A
:1007E0002046FFF769FF06E0D4E901213020904759
:1007F000206A401C2062381EA7F10107F4DC07E0E4
:10080000D4E9012118F805009047206A401C2062B5
:10081000281EA5F10105F3DC2046FFF763FF2078D1
:10082000000602D50220BDE8F0870120FBE7116831
:100830000268006A530501D508700AE0D30501D5A6
:10084000088006E0130603D5C217C1E9000200E0E4
:1008500008600120704770472DE9FF4F0C461E4687
:100860004FF0FF378BB0D2E90001DDF860800A90CD
:100870008A46C1F30A5505B93D46002108464FF0A6
:100880000000BAF1000F00F4400005DA00EB800030
:100890004FF4400101EA50004FEA9059B9F1010FBD
:1008A00000DDB9460A9850EA4A000ED044F61050CE
:1008B000A5F2FF3545432F14B8F1000F1ED0754245
:1008C000291E1EDDC9F100021CE0B8F1010F4FF036
:1008D000000001D0302103E0F24305E02154401C28
:1008E000B042FBDB30460022002121540B99C1F8B5
:1008F0000880C1E900200FB0BDE8F08FBD1B6D1C62
:10090000DEE74A4600DA694206A800F03DFD06AB84
:1009100093E8070003AB83E8070050460A9901F00B
:1009200039FB8DE80700A0F500501F3800900398B0
:10093000002D0ADD42F21F014A460844002303A9A4
:100940000390684601F0A2FD09E0A0F500504A4678
:100950001F38002303A90390684601F0ACFD8DE821
:1009600007000004000C03D04FF0FF30410800E006
:100970001046B8F1000F03D00022009215461EE089
:10098000751E05D400F0D0FA303262556D1EF9D5CF
:10099000B3460122084302D000227F1C04E02078E5
:1009A000302801D100227F1E002A099784D01DE043
:1009B000112D07DA00F0B8FA303262556D1C50EA9A
:1009C0000102F5D1084302D00098C8B10EE0002121
:1009D000681E05E0235C625C63542254401E491C7F
:1009E0008142F7DBAB46A81B401E0990002004F8AB
:1009F0000B000B98099AC0F80880C0E9002B7AE731
:100A000011264FF0000857E72DE9F04F88460446BD
:100A1000D21D22F0070191B0D1E90001CDE90A0110
:100A200006F076FC02460B98C00F01D02D2007E09F
:100A30002068810701D52B2002E0202101EAC000B7
:100A4000032A099001D0072A05DB034641462046C8
:100A500000F02EFC0BE12078800601D5E06900E073
:100A60000620B8F1650F814606D0B8F1660F18D0A0
:100A7000B8F1670F70D131E00020B9F1110F00908B
:100A800001DB112301E009F101030AAA01A90CA865
:100A9000FFF7E2FEDDE90C70002609F1010583464F
:100AA00047E001204B4600904FF000470AAA01A9F9
:100AB0000CA8FFF7D1FEDDE90DB00C995D460026CC
:100AC00010B909F101000D18B9EB050003D4C0F10C
:100AD000FF3609F10105A5EB09002BE0B9F1010F83
:100AE00001DA4FF001090020B9F1110F00904846DA
:100AF00001DD112300E003460AAA01A90CA8FFF7B3
:100B0000ABFEDDE90C704D460026834620780007D9
:100B10000AD4AB4500DA5D4601A8012D04DD411978
:100B200011F8011C302907D04F4502DA17F1040FE4
:100B300004DA012082460FE06D1EEEE7002F02DC92
:100B4000ED1B3E4403E0781CA84200DD7D1CB81B71
:100B500000F1010A4FF000472078000703D4AA45AE
:100B600001DB4FF0FF3A0021B7F1004F0DF14308D0
:100B70008DF8431024D002202B23002F01DA7F426E
:100B80002D230A21021EA0F1010000DC5FB197FBBA
:100B9000F1FC97FBF1F201FB1C7C17460CF1300CC9
:100BA00008F801CDEEE7A8F10100037021880905DE
:100BB00001D5452100E06521A0F1010800F8011CE4
:100BC00009980FA9A1EB0807FF1D00B101204119E9
:100BD00001EBEA70A1693844081A401EA061207830
:100BE000C00602D42046FFF767FD099828B1D4E972
:100BF00001219047206A401C20622078C00622D53F
:100C00002046FFF759FD1EE0002E04DBB34502DD50
:100C100001A8805D00E03020D4E901219047206ADE
:100C2000401C2062761CAAF101005FEA000A0AD18A
:100C300000F076F9C0680168405CD4E90121904772
:100C4000206A401C2062281EA5F10105DCDC07E0BB
:100C5000D4E9012118F8010B9047206A401C20625A
:100C6000381EA7F10107F3DC2046FFF73BFD032008
:100C700011B041E601694A1C02610878704700B56D
:100C80008FB0CDE901310021059105497944CDE9C5
:100C9000031011466846FFF7EFFB0FB000BD0000E0
:100CA000E5FFFFFF0A6802F8010B0A607047D1E90F
:100CB00000239A4202D2531C0B6010707047000050
:100CC000074B70B50D467B44FFF7D9FF0446284615
:100CD00000F0CCFB10B14FF0FF3070BD204670BD6E
:100CE0009D6600002DE9FF5F15468A460446DFF841
:100CF000AC80F8440027D8E900103E46CDE900104A
:100D000010E03AF816106A4602A800F04FFC411CA9
:100D100007D02178890603D5E269391891420DD8A8
:100D20000744761C2078800602D5E069B84205DDCC
:100D3000AE42E6DB3AF816000028E2D1A069C01BFB
:100D4000A0612046FFF7B8FCD8E90010CDE90010FB
:100D5000002017E03AF818106A4602A800F026FCB6
:100D6000B0F1FF3F81460BD000250DF1080B05E0E7
:100D7000D4E901211BF8050090476D1C4D45F7D3C0
:100D800008F10100B0428046E4DB206A384420626A
:100D90002046FFF7A7FCBDE8FF9F0000DE690000CA
:100DA0002DE9F0418046D21D22F007020025D2E94C
:100DB0000002F52915A614D0011E72F1000106DA11
:100DC0000023D0EB030063EB020211A608E0D8F881
:100DD00000108B0701D50FA602E0490701D50EA62A
:100DE00001251146002408F1240704E000F09CF8D6
:100DF00030323A55641C50EA0102F7D12B46324694
:100E000021464046BDE8F041FFF7B8BC00000000B5
:100E10002D0000002B0000002000000030B4002155
:100E200000F1240408E002F00705D208303542EA58
:100E30004372DB086554491C52EA0305F3D1046888
:100E4000002310A2250707D5A40600D421B1C46948
:100E500001230DA2641EC46130BCFFF78FBC10B526
:100E6000044621461068FFF757FC02462046BDE8BD
:100E700010400023D2E7D21D22F00701D1E9002360
:100E8000CCE700000000000030000000F0B40D4688
:100E90000188090502D5214C7C4402E01F4C7C44AA
:100EA0000E34002100F1240608E002F00F071209B9
:100EB000E75D42EA03721B097754491C52EA0307B3
:100EC000F3D102780023120704D5702D06D009B1A2
:100ED000022311342246F0BCFFF750BC012310342A
:100EE000F8E770B504460D4621461068FFF714FC7C
:100EF000024629462046BDE870400023C6E7D21DC1
:100F000022F00703D3E90023C0E70368126843F027
:100F1000200303600823C3610023B7E74068000093
:100F2000004870478816002030B5B0F10A024FEA39
:100F3000900E71F100034EEA817EB0EB0E0061EB82
:100F400091014FEA101E4EEA017E10EB0E0041EBBC
:100F500011114FEA102E4EEA016E10EB0E0041EB1C
:100F600011214FEA104E4EEA014E10EB0E0041EBFC
:100F70001141401841F100014FEAD00040EA4170B0
:100F80004FEAD10110EB80054FEA810444EA9074E6
:100F900044EB01046D1944EB0404521BA3414FF0D0
:100FA000000348BF0A3200D530BD401C41F10001AA
:100FB00030BD00002DE9F04F04460D46D21D22F051
:100FC000070089B0D0E900974846394606F0A0F9F5
:100FD0000246F80F01D02D2307E02068810701D5D4
:100FE0002B2302E0202101EAC0038DF820300BB151
:100FF000012000E00020032A824601D0072A04DBFA
:101000002946204600F054F93FE12078800601D4BB
:101010000D2500E0E569C7F30A560D2D49DA0021D8
:101020004FEA175B08464FF00000002F00F4400025
:1010300007DA00EB80004FF4400100EBD07001EACA
:1010400060008115012901DD4FF0FF3100224FEAD8
:10105000850CBCF1180F06D31346ACF118004FF005
:101060008052C24003E04FF4801323FA0CF30CF1DA
:101070000C0CBCF1200F04D3ACF1200C09FA0CF0DD
:1010800001E007FA0CF000294FF0004801DD18B923
:101090000FE00ED140450CD319EB02095F4121B995
:1010A000404502D19F4329EA0209BBEB175F00D0FC
:1010B000761C2088000502D57B48784402E07A48F7
:1010C0007844193808AA302302F80A30037C0AF160
:1010D0000101002E0AF1020A53546A4602DC4FF065
:1010E000300101E04FF031014FF001088DF80010A0
:1010F00002D0A6F2FF3603E059EA470100D06B4E5A
:10110000002D02DC2178090704D54FF002082E21BA
:101110008DF80110C44600210BE0C7F303433F01E3
:10112000C35C491C6D1E02F80830052908F101084E
:1011300001DA002DF1DC00210CE000EB1973491CF1
:101140001B786D1E082902F808304FEA091908F1CA
:10115000010801DA002DF0DC21688B0602D516E0CB
:10116000A8F10108E04505DD02EB080313F8013C96
:10117000302BF5D0B8F1000F09DD02EB080313F8AE
:10118000013C2E2B03D1090701D4A8F10108002D41
:1011900005DD3E2102F808106D1E08F10108407CB3
:1011A000002E02F8080008F1010804DA2D2076422A
:1011B00002F8080002E02B2002F808000A214FF490
:1011C0007A70864208F101080BDB96FBF0F33033AE
:1011D00002F8083096FBF0F308F1010800FB1366F3
:1011E00001E0642E0CDB642096FBF0F3303302F850
:1011F000083096FBF0F308F1010800FB136601E0EC
:101200000A2E06DB96FBF1F0303002F8080008F1F8
:10121000010896FBF1F001FB1060303002F8080085
:10122000A16908F1010808EB050202EB0A00081A9F
:10123000A0612078C00602D42046FFF73DFA216A5B
:1012400008AE01EB0A00206204E0D4E9012116F89F
:10125000010B9047BAF1010AF7D22078C00602D5F7
:101260002046FFF729FA6E4609E016F8010B3E28E2
:101270000FD0D4E901219047206A401C2062B8F1C8
:101280000108F2D22046FFF72DFA09B00320BDE88D
:10129000F08F206A2844206203E0D4E90121302045
:1012A00090476D1EEBD3F8E75966000002FCFFFF84
:1012B0002DE9F0411F46044603260168072A01F480
:1012C000006004DB08B116A505E016A503E008B12F
:1012D00015A500E015A521F010002060A069C01E32
:1012E000A0610FB1401EA0612046FFF7E5F94FB1A4
:1012F000D4E9012138469047206A401C2062C01C76
:10130000206206E0206AFAE7D4E9012115F8010B12
:101310009047761EF8D22046FFF7E4F9BDE8F08149
:101320004E414E006E616E00494E4600696E660089
:1013300010B5436913B1AFF3008001E0FFF7F5F991
:10134000012010BD127800F124010A7000224A70B9
:101350000122EDE711684FF0FF32E9E710B543696C
:1013600013B1AFF3008001E0FFF7BCFC012010BD1A
:10137000128800F1240182840022C2840122EDE758
:1013800011684FF0FF32E9E72DE9F0478146164634
:101390008AB0354878440DC88DE80D00324878444D
:1013A000801C03AC0DC884E80D0041F69B30084456
:1013B000372190FBF1F290FBF1F5A5F1800501FBDF
:1013C00012041B3C02D56442012000E00020DFF83B
:1013D00098A080460027FA44AAF1BE0A0EE0E00772
:1013E0000AD03246684607EB470101230AEB810128
:1013F00001F061F88DE8070064107F1C002CEED12D
:10140000194F7F44AE3F19E0E80715D007EB0410F1
:101410000DF1180A90E80E008AE80E00C068F0424C
:1014200001D1981908903246012306A903A801F0BA
:1014300042F803AB83E807006D10641C002DE3D174
:101440004FF0010332466946B8F1000F03A802D0FD
:1014500001F01CF801E001F02EF8C9E90001C9F81B
:1014600008200AB0BDE8F08710640000007B00F09F
:101470008000704710B542485421FFF7F3F8414807
:101480005421FFF7EFF840485421FFF7EBF83F49AC
:101490003B483C4A3F4B08603D490A603A49196065
:1014A000531C0365481C1065012008653B48344AFD
:1014B00039A1784400F036FA20B9384878440A381F
:1014C00000F0D5FA37482F4A35A1784400F02AFABF
:1014D00020B9344878440A3800F0C9FA32482A4A18
:1014E0002FA1784400F01EFA20B92F4878440A381A
:1014F00000F0BDFA40232248DC000021224600F023
:10150000EDF920B125487844543800F0B0FA1D4870
:1015100022464023002100F0E1F920B1214878441F
:10152000543800F0A4FA184822461023002100F095
:10153000D5F9002806D01C487844BDE8104056383C
:1015400000F095BA10BD104870B5006D20F0010490
:101550000B4800F05DFA0B4800F05AFA0A4800F018
:1015600057FA09E0206D20F00105204600F050FAFE
:10157000204600F0A1F82C46002CF3D170BD0000ED
:101580006C150020C015002014160020A4010020B6
:10159000A8010020AC010020720000000A630000D6
:1015A00077000000F6620000E262000070B51646A7
:1015B0000C46054600F078F8036893F8010101280D
:1015C00006D0FF2C0FD8185D68B101202C7070BDBB
:1015D000D3F807013246214603F207130344284695
:1015E000BDE8704018474FF0FF3070BD0EB5CDE933
:1015F000000100F013FC029069460120ABBE0EBD55
:1016000008B5694600900220ABBE08BD1FB58DE845
:10161000070069460520ABBE04B010BD1FB58DE8BC
:101620000F0069460620ABBEF6E708B56946009094
:101630000920ABBE08BD1CB5CDE9000169460A20F2
:10164000ABBE1CBD704708B5694600900C20ABBE10
:1016500008BD000000487047681600207546FFF777
:10166000F9FFAE4605006946534620F0070085465F
:1016700018B020B5FEF714FEBDE820404FF000067C
:101680004FF000074FF000084FF0000B21F007016A
:10169000AC46ACE8C009ACE8C009ACE8C009ACE8AD
:1016A000C0098D467047000010B5FFF739FC001DDA
:1016B00010BD00BF895E000070B50446051F00F034
:1016C0001FFA0068002C14BF446870BD002C18BFBE
:1016D000AC423CBF20466468F8D301680A18AA42AD
:1016E00018BF456003D12A68054611440160286887
:1016F0004119A1421CBF6C6070BD616869602168BE
:101700000844286070BD2DE9F04705460C46C868BE
:1017100020F4201040F48000C860800602D50846FE
:1017200000F03BFBE06841F282014FF0FF390140DD
:10173000022903D0204600F0D9FAB5E000F4204198
:10174000B1F5004F0FD1C00306D56168E06A884249
:1017500000D80846606006E02069E0626060606969
:10176000FFF771FFA061A0680022EEB200280DDA39
:10177000E1688B050AD4C043A06041F49030226038
:10178000E0606068411C61600670A5E0E06890461A
:10179000226040F40050E060206968BB6069FFF798
:1017A00044FF012704F12405A0B1A08910F4407F73
:1017B00008D0E06900F0EFF9206118B1E06840F46A
:1017C000006016E0E7612561E06820F4407040F4B5
:1017D00080600EE0E06900F0DEF900282061F1D0C1
:1017E000E06840F4006010F4407FE06002D140F413
:1017F0008070E06020696060E06825696FF0010A30
:10180000C1051FD56168E06A884200D80846411BBF
:1018100004D02246284600F073FAF0BBE0680102CB
:1018200003D5E562C4E9015854E0691CE1626160D6
:10183000E16940F48030491EC4E9021030462E7040
:10184000BDE8F087010202D500F480320AE060684A
:10185000411C61600670E0680A2E40F48030E06050
:1018600006D00022E16A6068814203D90B4602E09B
:101870000122F7E70346A7895B1B7F0503D4E769CD
:101880009F4200DDE2B1814200D80146E5620F1AB5
:10189000C4E90158002B09DD00E005E022461946A5
:1018A000284600F02DFA08B14846C9E747B1A069BB
:1018B000E5626560C01BA061E06840F01000E06078
:1018C000E068000208D56168A069E562491B084428
:1018D0006560A0615046B3E73046B1E770B5C468B3
:1018E000A50713D0650211D4B2F5807F09D0B2F5F7
:1018F000007F06D0B2F5806F08D1012300F12401EA
:1019000006E05D1E6FF07F46B54201D3012070BD39
:101910000161C361416024F470611143C160002022
:1019200070BD00002DE9F0410C46074616461046F2
:1019300000F06EF82078611C61280AD0722802D06D
:1019400077283CD102E00125002405E0022504248B
:1019500002E0082448F2020511F8010B2B2806D0FA
:10196000622809D011F8010C74280AD00BE045F068
:10197000030544F00204EFE745F0040544F00104D8
:10198000EAE744F0100438462146FFF72FFE411CD9
:1019900015D00021316171604FF40071F560F16183
:1019A0007061200704D530460222002100F022F9A0
:1019B000306D40F0010030653046BDE8F081002018
:1019C000FBE72DE9F0410D460646104C206DC1079E
:1019D00004D0410804D020F00104F7E722460EE0CD
:1019E000542000F0D8F807000ED0206D47F0010118
:1019F0000843542120653846FEF734FE3A4629460E
:101A00003046BDE8F0418DE70020D6E76C15002098
:101A10002DE9F04704464FF000094FF0FF37C56845
:101A2000D4E90486A80707D0204600F093F9304691
:101A3000FFF7E6FD002802DA3846BDE8F087280502
:101A400002D54046FFF738FE4C212046FEF70AFE3D
:101A5000206D20F0010020654846EEE710B50446F1
:101A6000AFF300802046BDE81040FEF704BC10B57F
:101A700000F0BAF9BDE8104000F0B0B94FF0013CF9
:101A800050F8042B51F8043B9A4221D1A2EB0C03ED
:101A9000934313EACC1317D150F8042B51F8043BAD
:101AA0009A4215D1A2EB0C03934313EACC130BD14A
:101AB00050F8042B51F8043B9A4209D1A2EB0C03D5
:101AC000934313EACC13DBD04FF00000704700BF04
:101AD000D01A01BAB1FA81F101F0180122FA01F02D
:101AE000CB40C1F12001DBB2C0B2C01A2CFA01F325
:101AF000D11A914311EAC311E6D170477047000033
:101B00000048704770160020704770477047704754
:101B100038B504460A4600206946AFF30080002825
:101B200008BF38BD02460099204600F0A4F9012004
:101B300038BD012000F0F3B9F8B5AFF300800546D9
:101B400000200C46102000BF0646A819A0420DD95F
:101B5000324669460020AFF30080070008BF00F05E
:101B6000DEF90098A04218BF0546C419FFF7C8FF68
:101B700005600746F01D20F007004619284600F0D2
:101B800073F9B44208BFF8BDA21B31463868BDE8FE
:101B9000F84000F070B970B50646FFF7B1FF056870
:101BA00006F10B0020F00704B4429CBF002070BD7A
:101BB0002B466A68BAB11068A04210D304F108013C
:101BC00088423CBF5068586007D351681019416083
:101BD0001168091B016058601460101D70BD134628
:101BE0005268002AE7D121462846FFF791FF0028D6
:101BF000DED170BD2DE9F041044616460D46476919
:101C0000007B80072ED03846FFF70FFD50BB3EB358
:101C1000012E02D0022E25D104E0204600F045F925
:101C200005441DE03846FFF70EFDE168002841F04D
:101C30001001E16005DA204600F058F80120BDE807
:101C4000F081C9030BD56268E16A914200D8114660
:101C5000A26911442269891A814200DD08460544BF
:101C6000002D01DA0220EAE7E16A6068E268814259
:101C700006D29103E06203D522F4003141F0100254
:101C8000A6690027AE4213DCE16A814201D90B4606
:101C900000E0034603EB060C2369ACEB030CAC45F8
:101CA00006DD814201D98C4600E084469C4505D181
:101CB000A760276042F02000A5620DE0AD1BE66939
:101CC000AE1B8142A66000D90846C01A281A2060BF
:101CD0005819606022F0200003490840E0600020AD
:101CE00084F84870ABE70000BFCFD7FFC16821F48C
:101CF000001141F08001C1600021816001607047E6
:101D00002DE9F047814614460E464FF0FF38324821
:101D1000D5685769054209D03846A169FFF78BFCA1
:101D2000002811DB2C48C0430540E5602B463246B5
:101D300049463846FFF76AFCA16920F00042B21A12
:101D400011440028A16103D02046FFF7CFFF404691
:101D5000BDE8F08770B504460569C06A61688842CD
:101D600000D80846E16821F42011E160C90312D5CA
:101D7000A84208D02246411B2846FFF7C1FF10B1F8
:101D80004FF0FF3070BD0020E562C4E90150E0680B
:101D900020F48030E060002070BD10B50446C068BB
:101DA00020F02000E060A16AA06988420DD02046A2
:101DB000FFF7D0FFE06820F4405040F01000E060F2
:101DC000A06AA0612069E062606044F24001E068BE
:101DD0008843E06010BD000010000200002801D020
:101DE00000F03CB87047000010B5014602A000F0BA
:101DF0007DF8012010BD000053494752545245441C
:101E00003A2052656469726563743A2063616E2793
:101E100074206F70656E3A200000000010B5431CFE
:101E200002E010F8011B71B18107FAD14FF00132C5
:101E300002C88C1A8C4314EAC211F9D0C01A0A06DF
:101E400003D0C01E10BDC01A10BD0A0401D0801EF0
:101E500010BD0902FCD0401E10BD00000149182031
:101E6000ABBEFEE72600020000210160C0E90110C0
:101E7000704710207047034640688C46002818BF02
:101E800088423CBF03464068F8D31868184488422B
:101E900007D00CF1030020F00700001D411A521A70
:101EA0000146081D0A60FFF707BC10B50146C2686D
:101EB000900703D0900607D5886A0AE000F03EF844
:101EC00001210160881E10BD8B69486818440B69A8
:101ED000C01A91F848301BB191F84910401A10BD52
:101EE0001103FCD50028FADD401E10BD70B5054673
:101EF0000C460A2000E06D1C00F018F835B1287877
:101F00000028F8D102E0641C00F010F814B1207829
:101F10000028F8D1BDE870400A2000F007B810B5DD
:101F200000F010F8BDE81040FFF758BF08B569464B
:101F30008DF800000320ABBE08BD000000487047CC
:101F40006816002010B5012805D0002103A0FFF776
:101F5000CDFF012010BD09A1F8E700005349475209
:101F6000544D454D3A204F7574206F662068656169
:101F700070206D656D6F7279000000003A20486531
:101F80006170206D656D6F727920636F727275700C
:101F9000746564005FEA400C08BF91F0000F4FEADF
:101FA0008C234FEAC12243EA51514FEA1C5018BF1B
:101FB00000F5F0404FEA300018BF41F000415FEA01
:101FC0006C5C00F02980BCF1FF3F08BF40F080400E
:101FD0007047130C06BF12044FF0100C4FF0000CAA
:101FE000130E04BF12020CF1080C130F04BF1201F0
:101FF0000CF1040C930F04BF92000CF1020CD30FF0
:1020000004BF52000CF1010C11464FF00002A0F188
:102010001F00A0EB0C00704711F0004F08BF704785
:1020200031F000413FF4D5AF0B0C06BF09044FF06F
:10203000100C4FF0000C0B0E04BF09020CF1080C41
:102040000B0F04BF09010CF1040C8B0F04BF8900B6
:102050000CF1020CCB0F04BF49000CF1010CCCF1C8
:102060002003A0EB0C0022FA03F302FA0CF241EA7F
:10207000030100F10100704720F07F4C80EA03006B
:1020800023F07F47ACEB070303F57C5300F00040DF
:1020900003F1FF032DE980494FEA154B09B44FEADC
:1020A000144325EA0B4E24EA03480FF2042606EBFC
:1020B000132749083E785FEA320203FB0667C7F53B
:1020C000000707FB06F64FEA54374FEAD64606F1FB
:1020D000020607FB066CCCF1005C4FEA1C472CEAB9
:1020E000074C07FB06F40CFB06F504EB15464FEA1C
:1020F000961634BF00204FF000404FEAD13706FB60
:1021000007FC4FEA1C4C0CFB0BF7D21B03FB0CF734
:1021100061EB07010CFB0EF7B0EB074072EB1742C7
:102120000CFB08F734BFA2EB0742B2EB074261EBAE
:1021300017414FEA0C444FEA910706FB07FC4FEAB0
:102140001C4C0CFB0BF7B0EBC74072EB573203FB98
:102150000CF734BFA2EBC742B2EBC74261EB573179
:102160000CFB0EF7B0EBC70072EB57720CFB08F7D5
:1021700034BFA2EBC702B2EBC70261EB5771039FFA
:102180004FEA816141EA921104EBCC044FEAD13766
:102190004FEA826206FB07FC42EA90124FEA806037
:1021A0004FEA1C4C0CFB0BF7D21B03FB0CF761EB4B
:1021B00007010CFB0EF7B0EB074072EB17420CFB6C
:1021C00008F734BFA2EB0742B2EB074261EB1741BD
:1021D0004FEA8C554FEA910704EB9C2406FB07FC61
:1021E0004FEA1C4C0CFB0BF7B0EBC74072EB5732BD
:1021F00003FB0CF734BFA2EBC742B2EBC74261EB63
:1022000057310CFB0EF7B0EBC70072EB57720CFBAB
:1022100008F734BFA2EBC702B2EBC70261EB5771FC
:1022200015EB4C254FEA816141EA92114FEA826237
:102230004FEAD13742EA901206FB07FC44F1000452
:102240004FEA80604FEA1C4C0CFB0BF7D21B03FBE0
:102250000CF761EB07010CFB0EF7B0EB074072EBDC
:1022600017420CFB08F734BFA2EB0742B2EB074260
:1022700061EB174115EB1C154FEA813141EA9241A0
:102280004FEA823242EA90424FEA80304FEA0C76BF
:1022900044F1000448EA03434EEA0B484FF0000EB5
:1022A000B2EB080C71EB030724BF624639464EEBD4
:1022B0000E0E4FF0000B0018524149414BEB0B0B37
:1022C000B2EB080C71EB03077BF1000B24BF6246F5
:1022D00039464EEB0E0E4FF0000B001852414941AB
:1022E0004BEB0B0BB2EB080C71EB03077BF1000B14
:1022F00024BF624639464EEB0E0E51EA020718BF64
:1023000046F0010616EB0E7655F1000254F100017D
:1023100003D5BDE88901BDE80088BDE88901BDE8B5
:102320000048B619524141EB0101A3F10103704786
:1023300080807F7E7D7C7B7A797877767675747302
:10234000727171706F6E6E6D6C6C6B6A6A696868C1
:10235000676666656464636362616160605F5F5E57
:102360005E5D5D5C5C5B5B5A5A59595858575756CD
:102370005655555554545353525252515150505032
:102380004F4F4F4E4E4D4D4D4C4C4C4B4B4B4A4A84
:102390004A494949484848474747474646464545C8
:1023A0004544444444434343434242424241414101
:1023B000002B9C4630D477002BD01CB54FEA370752
:1023C00003B44FF010004FF01001BAF1000F06D027
:1023D000BCF1000FDCBF40F0080040F008014FF0F6
:1023E00000000FBCBDE810400BF1010BBBF1010F69
:1023F00008BF5FEA170722BF12F1010211F10101C4
:102400004FF0004143F1000300F0004043EA0000B8
:102410007047F9D35708D0E746EA064613F1400F54
:102420004FEA16461FDD13F1200FDFBF16430A46A1
:10243000002120335B42BED0C3F1200746EA0646A6
:1024400002FA07F74FEA164646EA0706C3F12007E5
:1024500022FA03F201FA07F721FA03F14FF0000321
:1024600042EA0702A7E746EA020646EA06464FEABC
:10247000164646EA0106BCBF46EA0646360C4FF051
:1024800000034FF000024FF0000194E72DE9804C6B
:102490009A46934670B491E8380007C831EA400C78
:1024A00048BF34EA430C03D5FFF7E6FDFFF780FF92
:1024B000F0BCBDE8008C2DE9804C9A46934670B480
:1024C00091E8380007C810F0804F08BF13F0804F24
:1024D00003D100F005F8FFF76BFFF0BCBDE8008CFE
:1024E00020F07F4780EA030023F07F4C07EB0C03CA
:1024F000A3F57C5300F00040A3F1FE0392F0000F1F
:1025000000F0B38095F0000F00F077802DE90149CD
:102510004FEA11404FEA144621EA004800FB06FC4E
:1025200024EA064708FB06F607FB08F800FB07F756
:1025300018EB06484CEB164C4FEA124B18EB0748C9
:102540004FEA15464CEB174022EA0B4E0BFB06FCFC
:1025500025EA06470EFB06F607FB0EFE0BFB07F708
:102560001EEB064E4CEB164C4FF000061EEB074ED2
:102570004CEB174B18EB0B0840F1000018EB0E0B5F
:1025800058EB000840F100008F1A4FF000013CBFEB
:10259000C943661B14BFB5EB040C00213CBFC94303
:1025A000F61B4FEA17444EEA8E0E27EA04454FEA1F
:1025B0001C4704FB07622CEA074C05FB07F70CFBE2
:1025C00005F604FB0CFC16EB074642EB174216EB34
:1025D0000C4642EB1C421BEB060658EB0202414143
:1025E00046EA9E0601D5BDE80189B619524141EB84
:1025F0000101A3F10103BDE801894FEA14454FEA47
:10260000114724EA054621EA074C05FB07F406FBBF
:1026100007F70CFB06F105FB0CFC11EB074144EB43
:1026200017444FEA124711EB0C4144EB1C4422EAD9
:10263000074C05FB07F206FB07F70CFB06F605FB4C
:102640000CFC16EB074642EB174216EB0C4642EB2E
:102650001C456A1854F1000148BF7047B619524131
:1026600041EB0101A3F10103704795F0000F37D052
:102670004FEA11424FEA144721EA024624EA074C86
:1026800002FB07F106FB07F70CFB06F402FB0CFC50
:1026900014EB074441EB17414FEA154714EB0C4488
:1026A00041EB1C4125EA074C02FB07F506FB07F747
:1026B0000CFB06F602FB0CFC16EB074645EB174538
:1026C00016EB0C4645EB1C42121951F1000148BFB4
:1026D0007047B619524141EB0101A3F10103704764
:1026E0004FEA14454FEA114724EA054621EA074C10
:1026F00005FB07F106FB07F70CFB06F24FF000069F
:1027000005FB0CFC12EB074241EB174112EB0C42AC
:1027100051EB1C4148BF7047921841EB0101A3F1F6
:102720000103704770B5044600688168C943C90752
:1027300017D1816821F00101816000F0C3FC0546DA
:102740000AE000BF00F0BEFC401B022804D920684C
:102750008068C043C00706D020688068C043C007B7
:10276000F0D0002070BDA06A40F01000A062E06AC6
:1027700040F00100E062012070BD0000F8B50026C5
:102780000446009600688168C943C9072DD0816856
:1027900041F001018160164816490068B0FBF1F074
:1027A00000E0401E00900028FBD100F08BFC0546A5
:1027B00016E000BF00F086FC401B022810D92068FC
:1027C0008068C043C0070BD0A06A40F01000A06230
:1027D000E06A40F00100E06284F824600120F8BD66
:1027E00020688068C043C007E4D10020F8BD000025
:1027F0008C00002040420F00FEE7002070470020C0
:102800007047000010B500220449054803F0C2FAE1
:102810000449034803F0B8FA002010BD1C0C002046
:10282000580300201C08002010B50146034803F09F
:10283000ABFA024803F08CFA002010BD58030020C8
:10284000094A10B5D2F8B822D2F814220AB10120F0
:1028500010BD0A460146044803F09CFABDE810404A
:10286000014803F0F5BA000058030020704772B623
:10287000FEE70000F8B500250446009590F8240016
:1028800001280BD0012084F824002046FFF74AFFDE
:102890002046FFF773FF060002D050E00220F8BD8B
:1028A000A06A20F4885040F00200A062022001F0EB
:1028B0006BF925490968B1FBF0F0400000E0401ECB
:1028C00000900028FBD12068816841F008018160F8
:1028D00000F0F8FB074608E000F0F4FBC01B0A28F4
:1028E00003D920688068000715D420688068000735
:1028F000F2D42068816841F00401816000F0E2FBBD
:10290000074612E000F0DEFBC01B0A280DD9206844
:102910008068400709D5A06A20F0020040F010004E
:10292000A06284F824500120F8BD20688068400728
:10293000E8D4A06A20F0020040F00100A06284F810
:1029400024503046F8BD00008C000020F8B500246B
:10295000009490F824202546012A12D0012280F804
:1029600024204A681F23072A0DD20668776B521E5F
:1029700002EB820293409F430B6893401F437763AF
:1029800019E00220F8BD06680D2A0AD2376BD21F63
:1029900002EB820293409F430B6893401F433763CF
:1029A00009E0F76A0D3A02EB820293409F430B68FD
:1029B00093401F43F7620A68072306680A2A0AD36E
:1029C000F7680A3A02EB420293409F438B689340B8
:1029D0001F43F76008E0376902EB420293409F43D0
:1029E0008B6893401F4337610A68102A01D0112A6F
:1029F00020D1124B02689A4217D193681B0219D456
:102A0000936843F4000393600968102912D10C49BC
:102A10000C4A0968B1FBF2F101EB8101490000E0C9
:102A2000491E00910029FBD104E0816A41F0200198
:102A30008162012480F824502046F8BD0024014022
:102A40008C00002040420F00806A70470068C06C14
:102A5000704700002DE9F0414FF0000704003D46AB
:102A60007ED0A06A002628B9E66284F82460204659
:102A700000F07EF82046FFF755FEA16AC90600D493
:102A800020B1A06A40F01000A06269E0A16A21F4C0
:102A9000885141F00201A1626268E169237B0A4327
:102AA00047EA43010A43A1684FF48077B94209D04D
:102AB000012907D05FF0000194F814C0BCF1010FA8
:102AC00002D00AE03946F7E7F3B1A36A43F02003E6
:102AD000A362E36A43F00103E3622368D3F804C00E
:102AE0002CF4694C4CEA010CC3F804C021688B68D3
:102AF000DFF870C003EA0C0313438B60A168B9428E
:102B00000BD0012909D00CE0DFF85CC0A3690CEB05
:102B100043330B4343F40061DFE7218A0D05A5F53C
:102B200080152168CB6A23F470032B43CB622168A4
:102B300089680E4B1940914208D1E662A16A21F0E2
:102B4000020141F00101A162BDE8F081A06A20F01C
:102B5000020040F01000A062E06A40F00100E06274
:102B60000120F1E7FDF7E1FF00E0FFFFFE0E1FFF90
:102B700010B586B000210091019102910391006887
:102B80001649884227D11648816941F40071816154
:102B9000816901F400710491816941F0040181614E
:102BA000816901F004010491816941F008018161AA
:102BB0008069032400F0080004900F20CDE9000490
:102BC0006946084800F088F90120CDE9000469460B
:102BD000054800F081F906B010BD00000024014056
:102BE0000010024000080140000C01402DE9F843AC
:102BF00000270D460446009700F064FA80462068DE
:102C00008168C90508D5A06A40F02000A06284F858
:102C100024700120BDE8F8834168C90503D4C06A67
:102C200010F4700F2AD0022000F0AEFF3B49096873
:102C3000B1FBF0F62068036939490B424FEA6101A4
:102C40004FEAA1121FD1C3684FEA611C13EA0C0FAF
:102C500019D103690B4225D1C068104222D114203A
:102C600023E0681C0AD02DB100F02CFAA0EB08007C
:102C7000A84203D920680068800725D5206800682D
:102C80008007EED52DE003690B4202D1C1681142E5
:102C900006D0026923490A4206D1C068084203D11E
:102CA000542002E0292000E0FC204643009816E072
:102CB000681C11D02DB100F005FAA0EB0800A84265
:102CC0000AD90098B04207D2A06A40F00400A0627E
:102CD00084F8247003209DE70098401C0090B042C7
:102CE000E6D321686FF012000860A06A40F400701B
:102CF000A06220688068C0F3424007280CD1207B86
:102D000050B9A06A20F48070A062A06AC00403D405
:102D1000A06A40F00100A06200207BE78C00002048
:102D2000244992244992240070B5044690F8240066
:102D300001280DD0012084F824002046FFF71EFD55
:102D400002004FF0000005D084F82400104670BD4A
:102D5000022070BDA16A40F20123994341F48071C1
:102D6000A1621F4D23681F49AB4218D10E6816F4AB
:102D7000702F14D0A66A46F48016A6620E687605F7
:102D800005D5A66A26F4005646F48056A662A66AC1
:102D9000F6040AD5E66A26F00606E66206E0A66AAA
:102DA00026F48016A6625E68E9E7E06284F82400F3
:102DB0006FF00200186020688368C3F34243072B5A
:102DC00005D1A84208D1096811F4702F04D0816898
:102DD00041F480118160B9E7816841F4A001F9E70D
:102DE000002801400424014010B5044690F8240056
:102DF000012807D0012084F824002046FFF792FC28
:102E000010B107E0022010BDA16A21F4885141F001
:102E10000101A162002184F8241010BD10B590F8C2
:102E200021100024022903D00421816301243DE004
:102E300001680A6822F00E020A6001680A6822F03E
:102E400001020A601A4A0168914201D1012121E080
:102E5000174A1432914201D110211BE0144A283242
:102E6000914201D1891515E0114A3C32914201D1BC
:102E700089140FE00E4A5032914202D14FF4803152
:102E800008E00B4A6432914202D14FF4801101E014
:102E90004FF08071064A083A5160012180F82110F4
:102EA000002180F82010416B01B18847204610BDF9
:102EB0000800024070B5044600F004F90546601CA5
:102EC00002D004480078044400F0FCF8401BA04203
:102ED000FAD370BD800000202DE9F84FDFF8B891DB
:102EE0000024A9F1040B23460F2709F1040AABF1D2
:102EF000040EC9E00125A5402A40AA427DD1674EB3
:102F0000D1F804C0ACEB0608B44532D014DCBCF1F7
:102F1000030F3AD009DCBCF1000F2AD0BCF1010F3D
:102F20001CD0BCF1020F31D11DE0BCF1110F17D044
:102F3000BCF1120F2AD119E0B8F5881F19D006DCB0
:102F4000B8F5803F15D0B8F5801F1FD111E0B8F556
:102F5000001F0ED0B8F5041F18D10AE0CB6815E0A9
:102F6000CB681B1D12E0CB6808330FE0CB680C3335
:102F70000CE08B682BB1012B4FF0080303D04561A7
:102F800004E0042302E0056100E00023FF2A01D8E9
:102F9000064601E000F104064FEA840501D9A5F1D7
:102FA0002005D6F8008007FA05FC28EA0C0803FA89
:102FB00005F548EA0508C6F800804D68ED0062D5C1
:102FC000374DAE6946F00106AE61AD6924F00306E7
:102FD00005F001050095334D06EB050CDCF80850B3
:102FE000A607360F07FA06F825EA0805DFF8B880C5
:102FF000404503D14FF0000817E044E0DFF8AC8013
:10300000404502D14FF001080FE0DFF8A4804045B1
:1030100002D14FF0020808E0DFF89880404502D165
:103020004FF0030801E04FF0040808FA06F848EAF8
:103030000508CCF808804D68D9F80060ED024D46CF
:1030400001D5164300E096432E604D68DAF8006023
:10305000AD02554601D5164300E096432E604D68FB
:10306000DBF80060AD035D4601D5164300E09643F2
:103070002E604D68DEF80060ED03754601D51643FD
:1030800000E096432E60641C0D682A46E5407FF4FC
:1030900031AFBDE8F88F00000804014000001110B6
:1030A000001002400000014000080140000C0140F7
:1030B00000100140001401400AB101617047090489
:1030C000FBE7000001488068704700008000002096
:1030D00002488168027811448160704780000020B6
:1030E000074810B5016841F010010160032000F0AD
:1030F00075F8002000F006F800F024F8002010BD5C
:103100000020024070B50D4D04464FF47A712878C6
:10311000B1FBF0F00A490968B1FBF0F001F064F985
:1031200048B9102C07D200222146501E00F036F874
:1031300000206C6070BD012070BD00008000002088
:103140008C0000200C4808B5816941F001018161C3
:10315000816901F001010091C16941F08051C161B3
:10316000C06900F0805000900448416821F0E0619F
:1031700041F00071416008BD0010024000000140B4
:10318000002809DB00F01F02012191404009800066
:1031900000F1E020C0F8001170470000F0B40E4BC1
:1031A0001B680C46C3F30223C3F10705042D00D9A5
:1031B0000425191D072901D2002300E0DB1E01268A
:1031C00006FA05F1491E214099409E40761E1640A0
:1031D0003143F0BC04F0B0B80CED00E0064900F05B
:1031E000070208684FF6FF03184040EA0220034A2E
:1031F00010430860704700000CED00E00000FA0585
:1032000010B50C0607D501F0070101EB810100EBB9
:10321000C100283005E001EB810100EBC10000F5A1
:10322000B47099B232B1012202730181190C41814B
:10323000002010BD00220273C180F9E7704701EB46
:10324000810200EBC202D0F8EC02D26B02F0AFBFF9
:1032500001EB810200EBC202D0F8EC02D2F87C2133
:1032600003F008B870B504460B0601F0070000EB48
:10327000800104EBC1014FF001024FF0000503D5BE
:1032800081F82920283103E081F8695101F5B471F2
:10329000087094F8A802012808D084F8A8222068B1
:1032A00003F05CFC84F8A852002070BD022070BDC1
:1032B00070B5044601F00F006268904201D9012008
:1032C00070BD0B0601F0070000EB800104EBC101AB
:1032D0004FF001024FF0000503D581F82920283175
:1032E00003E081F8695101F5B4718D70087094F8AC
:1032F000A802012808D084F8A822206803F0CBFC9B
:1033000084F8A852002070BD022070BD2DE9F05F46
:1033100004685FEA424C0B788D69B4F850C04FF0F6
:1033200000064BF68F7948F2800A48F68F7B48F208
:10333000C00E4FF480672AD54FF0020808EBC3088F
:10334000C44407EB4C07E45BC4F30904A54203D370
:103350002D1B8D6101D00BE08E61066836F823507D
:1033600005EA090585F4005545EA0A0526F82350C3
:10337000520609D50D78036833F8252002EA0B02BE
:1033800042EA0E0223F8252084B30A8929E04FF08F
:10339000060808EBC308C44407EB4C07E45BC4F31E
:1033A0000904A54203D32D1B8D6101D00BE08E6172
:1033B000066836F8235005EA090585F4005545EA04
:1033C0000A0526F82350520609D40B78056835F80B
:1033D000232002EA0B0242EA0E0225F823202CB138
:1033E0004A8949690068234603F060FF2046BDE82A
:1033F000F09F2DE9F05F054600680C465FEA426CDD
:1034000016468B692278B0F850C048F68F774CF298
:1034100080094FF4004B4FF6FF7E4FF4806A4FF067
:10342000000172D54FF0020808EBC208E0440AEB35
:10343000480C30F80C00C0F30900834211D91B1A64
:10344000A3610FD0730407D52E6836F822303B40B5
:1034500043EA090326F8223094F82420012A47D0B1
:1034600052E1A161607810B1012813D01AE02868F8
:10347000B0F85030184400EB0210B0F80424C2F346
:103480000902A0F80424B0F8042442F40042A0F891
:10349000042407E02868B0F85030184400EB02100C
:1034A000A0F804146278286812B1012A11D018E03B
:1034B000B0F850100844217800EB0110B0F80C145B
:1034C000C1F30901A0F80C14B0F80C1441F4004148
:1034D00005E0B0F850201044227800EB0210A0F86C
:1034E0000C1421782846FFF7AAFE700472D40BE171
:1034F000626902446261E2690244E2612369226A0C
:103500009A4203D31846111A04E03EE084F82410CE
:103510000AB110462162617811B1012929D031E048
:103520002968B1F850201144227801EB0211B1F85A
:103530000424C2F30902A1F8042401F204413E2844
:1035400007D94209C30600D1521E0B884BEA8222DA
:1035500007E048B14208C30700D0521C0B880EEAAE
:10356000822213430B800DE00A8842F400420A8055
:1035700008E02968B1F850201144227801EB0211CB
:10358000A1F8040483B22289BAE04FF0060808EBE0
:10359000C208E0440AEB480C30F80C00C0F3090004
:1035A000834211D31B1AA3610FD0730407D42E6872
:1035B00036F822303B4043EA090326F8223094F8DB
:1035C0002420012A51D09FE0A161607818B1012820
:1035D00014D01BE03FE02868B0F85030184400EBEE
:1035E0000210B0F80424C2F30902A0F80424B0F8D1
:1035F000042442F40042A0F8042407E02868B0F84C
:103600005030184400EB0210A0F8041462782868C7
:1036100012B1012A11D018E0B0F8501008442178F6
:1036200000EB0110B0F80C14C1F30901A0F80C1460
:10363000B0F80C1441F4004105E0B0F850201044FB
:10364000227800EB0210A0F80C1421782846FFF72E
:10365000F6FD700458D42278296831F822003840E9
:1036600040EA090021F822004EE0626902446261EA
:10367000E2690244E2612369226A9A4203D318464E
:10368000111A216204E00AB11046216284F8241064
:103690006278296812B1012A28D02FE0B1F85020B1
:1036A0001144227801EB0211B1F80C24C2F3090293
:1036B000A1F80C2401F20C413E2807D94209C306A7
:1036C00000D1521E0B884BEA822207E048B1420823
:1036D000C30700D0521C0B880EEA822213430B80D2
:1036E0000CE00A8842F400420A8007E0B1F850205A
:1036F0001144227801EB0211A1F80C04628983B213
:103700006169286803F0F0FD2278296831F8220009
:1037100048F6BF73184080F0300048F28003184329
:1037200021F822000020BDE8F09F01F0070101EB25
:10373000810100EBC100D0F8840170472DE9F04110
:1037400004460F0601F0070000EB800104EBC10105
:103750004FF001064FF0000503D581F829602831AC
:1037600003E081F8695101F5B471022B08700A6118
:10377000CB7000D10D7194F8A802012809D084F80B
:10378000A862206803F09AF8284684F8A852BDE899
:10379000F0810220FBE710B501F0070404EB84017F
:1037A00000EBC101C1E95F230022C1F8842181F847
:1037B000692181F86841006801F5B47103F0C0FA2D
:1037C000002010BD70B504460D4601F00700616889
:1037D000884201D9012070BD29064FF000064FF044
:1037E000010207D500EB800104EBC10181F829201B
:1037F000283107E005EB850104EBC10181F869611F
:1038000001F5B4718A70087094F8A802012807D0F5
:1038100084F8A822206803F07AFA680702D006E04C
:10382000022070BD04F52C71206803F032FA84F890
:10383000A862002070BD10B501F0070404EB8401FC
:1038400000EBC101C1E90F23012281F84C208B64F8
:1038500000234B6481F8292001F8284F006803F009
:103860006FFA002010BD00001FB50446006803F089
:1038700019FD010403D5204601F096FD1FBD410549
:103880000DD5206830F8441F21F480610180204666
:1038900000F018F90021204600F02FF91FBD410467
:1038A00005D5206830F8441F21F4804174E081047C
:1038B00005D5206830F8441F21F400516CE0C104A4
:1038C00014D5206830F8401F21F0040101802068E1
:1038D00030F8401F21F008010180204600F005F972
:1038E000206830F8441F21F4805155E0010540D58F
:1038F000D4F800200020694632F8203021F810303A
:10390000401CC0B20828F7D332F8400F40F0010045
:103910001080206830F8402F22F0010202802068D9
:10392000B0F844205205FBD530F8442F22F48062D1
:1039300002800020236831F8102023F82020401C4A
:10394000C0B20828F6D3206830F8401F41F00801C3
:103950000180206830F8441F21F400610180206854
:1039600030F8401F41F004010180204600F0FAF8D1
:103970001FBD810509D5206830F8441F21F400716E
:103980000180204600F0B5F81FBDC005FCD52068B9
:1039900030F8441F21F4807101801FBD2DE9F041F2
:1039A00086B0040004D094F8A902002520B108E0F4
:1039B000012006B0BDE8F08184F8A852204600F04E
:1039C0005BF8032084F8A902206803F05BF904F196
:1039D0001001142288466846FCF712FE94E80F0096
:1039E00003F0BAF80227D0BB0021206803F074FC72
:1039F000002001260EE000BF00EB800104EBC101B6
:103A000081F8296001F8280F401CCD700D614D61CF
:103A1000C0B28D6161688142EED8002012E000BF23
:103A200000EB800104EBC10181F8695181F8680164
:103A300081F86B51C1F87851C1F87C51401CC0B27B
:103A4000C1F8805161688142EAD814224146684633
:103A5000FCF7D6FD94E80F0003F00BF910B184F8E1
:103A6000A972A5E784F8245084F8A962206803F0BD
:103A7000FEF800209DE7000008B500680F49884265
:103A80001AD10F48C16941F40001C161C069002227
:103A900000F40000009011461320FFF77FFB132075
:103AA000FFF76EFB002211461420FFF777FBBDE8FD
:103AB00008401420FFF764BB08BD0000005C004014
:103AC0000010024070B5044680680125022801D02C
:103AD000FEF7CDFE2946D4F8EC0202F0B4FCD4F88F
:103AE000EC02BDE8704002F070BCD0F8EC0202F0CD
:103AF00094BCD0F8EC0202F09ABC10B5044690F8E1
:103B0000A80201280BD0012084F8A80284F8241010
:103B1000206803F0E3FB002084F8A80210BD022017
:103B200010BDD0F8EC2200F52C71104602F097BCC5
:103B300010B5044690F8A802012810D0012084F89E
:103B4000A802206803F06DFB01212046FFF776FBF9
:103B5000206803F08AF8002084F8A80210BD022033
:103B600010BD000010B50446D0F8EC0202F0B6FC1F
:103B7000A069002804D00348016841F006010160F3
:103B800010BD000010ED00E010B501460020234CF0
:103B9000012922D0022939D010291DD1616822685B
:103BA000D20119D51E48C1F38342C903805C0AD5EE
:103BB00061681B4AC1F34041921E515C194AB2FB35
:103BC000F1F1484301E0184948436168490203D4D0
:103BD00040000321B0FBF1F010BD226AC2F30121C5
:103BE000012903D1920701D5C80310BD022905D1CF
:103BF000626A920702D549F6404010BD0329FCD104
:103C000021688903F9D54FF2244010BD00F01AF95C
:103C10006168C1F38131491C4900DBE700100240B3
:103C20009A76000800127A0000093D002DE9F84359
:103C300005460078354CC00754D0E0690026C00026
:103C400008D4E06940F08050E061E069012600F0AE
:103C5000805000902E480168C90512D40168804642
:103C600041F480710160FFF72DFA074605E000BFBF
:103C7000FFF728FAC01B642823D8D8F80000C00535
:103C8000F6D5206A10F4407021D0A98801F4407163
:103C900081421CD0206A1F49012220F440700A6032
:103CA00000220A602062C00711D0FFF70BFA074616
:103CB00041F2883808E000BFFFF704FAC11B414514
:103CC00002D90320BDE8F883206A8007F4D5206A72
:103CD000696820F44070084320621EB1E06920F05A
:103CE0008050E0612878800705D56068A96820F4D5
:103CF0004040084360602878C00605D56068E968E0
:103D000020F48000084360600020DBE700100240E0
:103D100000700040400442422DE9F0470F46050084
:103D200061D0434E306800F00700B84209D23068D5
:103D300020F0070038433060306800F00700B842D8
:103D400051D128683B4C810712D5400703D56068E4
:103D500040F4E06060602878000703D5606840F4B4
:103D6000605060606068A96820F0F00008436060FF
:103D70002878C00728D06868012810D02168022858
:103D800010D0890700292EDA616821F00301014370
:103D90006160FFF797F9804641F288390DE02168AC
:103DA0008903EFE78901EDE7FFF78CF9A0EB080144
:103DB000494502D90320BDE8F0876068696800F0D2
:103DC0000C00B0EB810FEFD1306800F00700B84273
:103DD0000BD9306820F0070038433060306800F0BD
:103DE0000700B84201D00120E5E72878400705D553
:103DF0006068E96820F4E0600843606028780007A4
:103E000006D56068296920F4605040EAC10060600E
:103E100000F028F86168084AC1F30311515CC840FA
:103E20000649086006480068FFF76CF90020C2E701
:103E30000020024000100240AA7600088C000020FA
:103E4000840000200448054900684968044AC1F319
:103E5000C221515CC84070478C0000200010024015
:103E6000BA7600080E4A51680E4801F00C03042B84
:103E700011D0082B0FD10C48C1F38343C903C05C98
:103E80000AD55168084AC1F34041921E515C054A67
:103E90005043B0FBF1F070470449484370470000BD
:103EA0000010024000127A008876000800093D00E8
:103EB0002DE9F84F040070D02078C04DC00749D0DC
:103EC0006868C0F38100012807D06868C0F38100EA
:103ED000022809D16868C00306D52868800339D54F
:103EE00060680028E7D035E06068B0F5803F0BD00F
:103EF00010B1B0F5A02F11D0286820F480302860D0
:103F0000286820F4802002E0286840F4803028608F
:103F1000606890B1FFF7D6F806460AE0286840F4DA
:103F200080202860F0E700BFFFF7CCF8801B6428F2
:103F300073D828688003F7D50CE0FFF7C3F806466E
:103F400005E000BFFFF7BEF8801B6428F0D82868A2
:103F50008003F7D420789A4E80074FF001094FF084
:103F6000000839D5686810F00C0F07D06868C0F3F6
:103F70008100022809D16868C00306D42868800738
:103F800014D52069012808D110E02069B0B1C6F825
:103F90000090FFF797F8074605E00AE1FFF792F86F
:103FA000C01B0228C4D828688007F7D52868616933
:103FB00020F0F80040EAC10028600DE0C6F800805B
:103FC000FFF780F8074604E0FFF77CF8C01B0228E3
:103FD00023D828688007F7D4207800072CD57948A3
:103FE000A169D9B1C0F80090FFF76CF8074604E06A
:103FF000FFF768F8C01B02280FD8686A8007F7D55A
:1040000071484FF4FA510068B0FBF1F0009000BF26
:104010000098411E0091FAD20EE080E0C0F80080C6
:10402000FFF750F8074604E0FFF74CF8C01B0228E2
:1040300075D8686A8007F7D42078400760D5E869AA
:104040000027C00008D4E86940F08050E861E869C2
:10405000012700F0805000905C480168C90513D426
:104060000168834641F480710160FFF72BF88246B6
:1040700006E000BFFFF726F8A0EB0A0064284ED840
:10408000DBF80000C005F5D5E06801280AD008B1CA
:10409000052813D0286A20F001002862286A20F041
:1040A000040002E0286A40F001002862E06841F262
:1040B000883B98B1FFF706F882460BE0286A40F08B
:1040C00004002862EEE700BFFEF7FCFFA0EB0A0148
:1040D00059455AD8286A8007F6D50CE0FEF7F2FF5A
:1040E000824605E0FEF7EEFFA0EB0A0159454CD8E9
:1040F000286A8007F6D41FB1E86920F08050E86193
:10410000E06988B36968C1F38101022944D00228BB
:10411000C6F8608004D0FEF7D5FF044638E034E0EE
:10412000FEF7D0FF074604E0FEF7CCFFC01B0228D5
:104130002BD828688001F7D4206AB0F5803F05D1DC
:104140006868A16820F4003008436860D4E9080179
:104150000843696821F4741108436860C6F86090E8
:10416000FEF7B0FF044606E025E000BFFEF7AAFF19
:10417000001B022809D828688001F7D51BE000BF82
:10418000FEF7A0FF001B022802D90320BDE8F88F2C
:1041900028688001F4D40EE00128F7D06868226A0C
:1041A00000F48031914204D1616A00F470108842B9
:1041B00001D00120EAE70020E8E7000000100240FB
:1041C00000004242800442428C0000200070004007
:1041D0007047000038B50446006842688168C943EA
:1041E0004B0606D5CB0704D1D3435B0601D4216C23
:1041F00005E08B0708D4D3431B0605D4616C01B0DE
:104200002046BDE8304008478B0601D54B0646D412
:10421000D3439B0643D44B060AD494F85130032B66
:104220003ED0636D43F004036365C3688368009305
:10423000890609D4616D41F00101616581680091D1
:10424000016821F040010160606D002827D02068DE
:10425000416821F0E0014160012084F8510090079D
:1042600022D02068416821F003014160104DE06CCC
:1042700040B14563E06CFEF7D1FD18B1606D40F0D0
:1042800040006065A06C002809D04563A06CFEF773
:10429000C5FD002803D0606D40F04000606538BD6A
:1042A000C1688068009038BD2046FFF791FF38BD97
:1042B0006557000870B5040009D0606A002540B158
:1042C00025616561A56294F8510040B10CE00120C0
:1042D00070BD6068B0F5827FF4D0E561F2E784F8E4
:1042E0005050204600F040F8022084F85100206829
:1042F000016821F040010160A088218900F48270EA
:1043000001F404410843A18901F400610843217CC0
:1043100001F002010843217D01F001010843218BD6
:1043200001F400710843217F01F03801084394F83B
:10433000201001F080010843218D01F40051084351
:1043400021680860A069042101EA104021684860E2
:104350002068C16921F40061C1616565012084F8AC
:104360005100002070BD000030B585B000240094DD
:104370000194029403940068184988422BD118488C
:10438000816941F480518161816901F48051049116
:10439000816941F0040181618069124D00F00400DF
:1043A0000490B02000900220019003200390694601
:1043B0002846FEF791FD4020CDE9000469462846D5
:1043C0000294FEF789FD002211462320FEF7E6FE47
:1043D0002320FEF7D5FE05B030BD000000300140BF
:1043E000001002400008014010B5401EB0F1807F6F
:1043F00001D3012010BD4FF0E02460610F21601750
:1044000002F09AFF0020A06107202061002010BD6B
:104410007047704710B590F83C20012A22D0012245
:1044200080F83C20CA688C6822F4407222434C68B1
:1044300022F4806222430C6822F4006222430C6959
:1044400022F4805222434C6922F400522243C9696B
:10445000002322F480420A4301684A6480F83C3019
:10446000002010BD022010BD70B590F83C20012A3C
:1044700026D0012480F83C40022280F83D200368C9
:104480005A689D6822F070060A6832435A600D4BE4
:1044900002689A4208D0B2F1804F05D00A4B9A4286
:1044A00002D00A4B9A4204D1496825F0800319438F
:1044B000916080F83D40002180F83C10084670BDB6
:1044C000022070BD002C01400004004000080040A4
:1044D00010B5040003D094F83D0010B107E00120AE
:1044E00010BD002084F83C00204600F01FF8022098
:1044F00084F83D00211D206801F0B0F9012084F806
:10450000460084F83E0084F83F0084F8400084F8B8
:10451000410084F8420084F8430084F8440084F8A1
:10452000450084F83D00002010BD000000B585B0B6
:1045300000210091019102910391234A01682348CF
:10454000914207D1816941F400618161806900F481
:1045500000600CE0B1F1804F0CD01D4A914207D1B0
:10456000C16941F00401C161C06900F00400049018
:1045700005B000BDC16941F00101C161C16901F02F
:1045800001010491816941F00401816180696946FA
:1045900000F0040004904FF4004000900D48FEF736
:1045A0009BFC0D48416821F4407141F0E06141F409
:1045B00080714160002201211C20FEF7EFFD1C20CC
:1045C000FEF7DEFDD4E70000002C014000100240A1
:1045D00000080040000801400000014070B504469A
:1045E00090F83C000025012817D0012684F83C6093
:1045F000022084F83D002068826822F0770222F4CD
:104600007F4282600868502838D00DDC20284FD0C7
:1046100005DC90B3102811D14AE0022070BD30288B
:1046200046D040280AD13BE060282FD070280DD01A
:10463000B0F5805F03D0B0F5005F12D0012584F89B
:104640003D60002084F83C00284670BDCB68D1E96D
:104650000121206801F045F92068816841F0770167
:1046600009E0CB68D1E90121206801F03AF920681E
:10467000816841F480418160E1E719E0CA684968D6
:10468000206801F029FA5021206806E0CA684968CC
:10469000206801F05FFA6021206801F02CF9CEE774
:1046A000CA684968206801F017FA40212068F4E7D9
:1046B000226801461046F0E770472DE9F0410546B3
:1046C00090F83C0000260C46012810D0012085F807
:1046D0003C0072B1042A1CD0082A2CD00C2A50D0DD
:1046E0000126002085F83C003046BDE8F08102201C
:1046F000FBE7D4E90012E368286801F0FFF92868B5
:10470000816921F00C01816128688169A2681143E7
:104710000FE0D4E90012E368286801F02DFA286858
:10472000816921F44061816128688169A26841EA58
:1047300002218161D5E72868D4E9002C277B036A30
:10474000016A21F480710162C16923F4007321F0D0
:10475000030141EA0C0121F0F00C39074FF4007716
:104760004CEA116107EA02221A43C1610262286819
:10477000C16921F00C01C1612868C169A2681143B7
:104780002BE02868D4E90021E768036AD0F820C04C
:104790002CF4805CC0F820C0D0F81CC023F4005377
:1047A0002CF4407C4CEA012121F4704C4FF6FF714F
:1047B00001EA07314FF4005741EA0C0107EA0232DF
:1047C0001A43C16102622868C16921F44061C16174
:1047D0002868C169A26841EA0221C16181E710B578
:1047E000040003D094F83D0010B107E0012010BD93
:1047F000002084F83C00204600F01EF8022084F8D7
:104800003D00211D206801F029F8012084F84600B0
:1048100084F83E0084F83F0084F8400084F84100AA
:1048200084F8420084F8430084F8440084F845008A
:1048300084F83D00002010BD00B585B00021009136
:1048400001910291039100681649884227D11648C8
:10485000C16941F00201C161C16901F00201049125
:10486000816941F0080181618069694600F00800B2
:104870000490102000900D48FEF72EFB0C48416874
:1048800021F4406141F0E06141F4006141600022A7
:1048900001211D20FEF782FC1D20FEF771FC05B0F2
:1048A00000BD00000004004000100240000C014068
:1048B0000000014030B50446002551B104290DD057
:1048C000082910D094F8410094F84520012811D10E
:1048D0000EE094F83E0094F84220F7E794F83F0089
:1048E00094F84320F2E794F8400094F84420EDE770
:1048F000012A01D0012030BD022059B1042912D073
:10490000082919D084F8410084F845000C2938D0D2
:10491000012534E084F83E0084F842002068C26833
:1049200042F0020210E084F83F0084F8430020685F
:10493000C26842F0040207E084F8400084F84400B2
:104940002068C26842F00802C2600122206800F0BC
:10495000BBFF0E492068884208D0B0F1804F05D0D7
:104960000B49884202D00B49884204D1816801F08A
:104970000701062903D0016841F0010101602846C2
:1049800030BD2068C26842F01002DDE7002C014013
:10499000000400400008004070B50446006801694A
:1049A0004FF00005C943890715D4C168C943890779
:1049B00011D4E91E016101202077206880698007F9
:1049C000204602D0FFF778FE04E000F0D7F820463A
:1049D00000F069F9257720680169C943490717D4B0
:1049E000C168C943490713D46FF004010161022073
:1049F00020772068806910F4407F204602D0FFF7BE
:104A00005BFE04E000F0BAF8204600F04CF9257790
:104A100020680169C943090716D4C168C943090759
:104A200012D46FF008010161042020772068C0696A
:104A30008007204602D0FFF73FFE04E000F09EF81A
:104A4000204600F030F9257720680169C943C9067E
:104A500017D4C168C943C90613D46FF010010161AE
:104A6000082020772068C06910F4407F204602D0DB
:104A7000FFF722FE04E000F081F8204600F013F971
:104A8000257720680169C943C90708D1C168C943AE
:104A9000C90704D1891E0161204600F08BF9206806
:104AA0000169C943090609D4C168C943090605D487
:104AB0006FF0800101612046FFF7AAFC20680169C0
:104AC000C943490609D4C168C943490605D46FF0F2
:104AD00040010161204600F099F920680169C9434D
:104AE00089060BD4C168C943890607D46FF0200139
:104AF00001612046BDE87040FFF78BBC70BD00002F
:104B000000B585B000210091019102910391164BEF
:104B10000268164802219A4210D1826942F00402CA
:104B20008261806900F0040004904FF4E060CDE9F8
:104B300000010320039069460D4811E00D4B9A4295
:104B400010D1826942F008028261806900F0080099
:104B50000490C020CDE90001012003906946064879
:104B6000FEF7BAF905B000BD002C0140001002406C
:104B70000008014000080040000C0140704770B57B
:104B8000044690F83C0000260D4601280FD0012075
:104B900084F83C006AB1042A1DD0082A2FD00C2AC0
:104BA0003FD00126002084F83C00304670BD022032
:104BB00070BD206800F0A8FE2068816941F00801FE
:104BC00081612068816921F0040181612068816927
:104BD0002A69114311E0206800F0BEFE2068816957
:104BE00041F4006181612068816921F48061816103
:104BF000206881692A6941EA02218161D2E720683F
:104C000000F0D6FE2068C16941F00801C16120684A
:104C1000C16921F00401C1612068C1692A69114399
:104C200011E0206800F0F0FE2068C16941F40061E5
:104C3000C1612068C16921F48061C1612068C169D6
:104C40002A6941EA0221C161ACE710B5040003D032
:104C500094F83D0010B107E0012010BD002084F859
:104C60003C00204600F01EF8022084F83D00211D83
:104C7000206800F0F3FD012084F8460084F83E002F
:104C800084F83F0084F8400084F8410084F8420032
:104C900084F8430084F8440084F8450084F83D001B
:104CA000002010BD7047704710B50446022249B17C
:104CB00004290ED0082913D094F84100012816D0F9
:104CC000012010BD94F83E000128F9D184F83E205F
:104CD0000FE094F83F000128F2D184F83F2008E06B
:104CE00094F840000128EBD184F8402001E084F8DA
:104CF00041200122206800F0E7FD0F49206888422A
:104D000003D1426C42F4004242642068884208D0D9
:104D1000B0F1804F05D00949884202D00849884245
:104D200004D1816801F00701062903D0016841F030
:104D300001010160002010BD002C01400004004072
:104D40000008004030B504460D460068002200F01F
:104D5000BBFD174B41F2111120688A10984209D10E
:104D6000036A0B4206D1036A134203D1436C23F456
:104D7000004343642068036A0B4206D1016A114272
:104D800003D1016821F00101016001203DB1042D32
:104D900008D0082D09D084F84100002030BD84F8E7
:104DA0003E00FAE784F83F00F7E784F84000F4E7B4
:104DB000002C0140704770B5044690F83C00012873
:104DC00012D0012584F83C50022084F83D00204692
:104DD00000F03CFE01004FF0000007D084F83D5089
:104DE00084F83C00012070BD022070BD2168CA68B3
:104DF00022F04002CA602168CA6822F48042CA6078
:104E000084F83D5084F83C00002070BD7047FEE7F8
:104E1000F0B500230A24302537261F4611E000BFD5
:104E2000B4EB107F02D905EB107C01E006EB107C9F
:104E300001F813C001EB430C00015B1C8CF80170FE
:104E4000DBB29342ECD3F0BD70B5D8B121B10129EA
:104E500004D0022905D103E0192502E0302500E045
:104E6000582504210A48FFF71FFF0024084E06E0DA
:104E7000306884630A20FEF71DF8641CE4B2AC427B
:104E8000F6D370BDBDE8704004210148FFF75ABF5A
:104E900010030020FEB50025264800950195244901
:104EA000029501608915816005730124047505264A
:104EB00006614FF460214560C0E90641FDF7CAFD77
:104EC00008B172B6FEE707200095CDE901406946BA
:104ED0001848FDF73BFD08B172B6FEE700940224C6
:104EE000694614480194FDF731FD08B172B6FEE73A
:104EF0000094032469460F480194FDF727FD08B18B
:104F000072B6FEE70420CDE9004069460948FDF786
:104F10001DFD08B172B6FEE70820CDE9000669461E
:104F20000448FDF713FD002801D072B6FEE7FEBD70
:104F300000240140B00100202DE9F04385B0002697
:104F400035480096019602960396816941F010015A
:104F50008161816901F010010491816941F02001B2
:104F60008161816901F020010491816941F00401AE
:104F70008161816901F004010491816941F00801B6
:104F800081618069DFF8948000F008004FF460448C
:104F90000490002221464046FEF78EF8DFF880900C
:104FA000012248F202014846FEF786F84FF488478E
:104FB000002239464846FEF77FF800940124022576
:104FC000CDE90145694640460395FDF785FFCDE9EA
:104FD00000540294694648460394FDF77DFF00970C
:104FE000CDE90145694648460395FDF775FFE003A5
:104FF000CDE9000469464846CDE90245FDF76CFF5E
:105000002820CDE90006694648460296FDF764FF70
:1050100005B0BDE8F0830000001002400010014020
:10502000000C01400F4810B50D4901604FF482712A
:10503000416000218160C1604FF480220161C0E9BC
:1050400005121022C0E90721416281620A21C16272
:10505000FFF730F9002801D072B6FEE710BD00005E
:1050600000300140E001002030B595B000250F95DB
:1050700010951195129513951C2168461495FBF710
:10508000F1FA202107A8FBF7EDFA374C35482060EC
:1050900044F24F60C4E901050F20C4E903058020F4
:1050A000C4E905502046FFF713FA08B172B6FEE7CF
:1050B0004FF480500F900FA92B48FFF78FFA08B1DB
:1050C00072B6FEE72848FFF7C0FD08B172B6FEE7EA
:1050D000139513A924481495FFF7C6F908B172B6C1
:1050E000FEE76020CDE900050220CDE90205C00100
:1050F000CDE90450002269461B480695FFF73FFDA5
:1051000008B172B6FEE7042269461748FFF737FD7B
:1051100008B172B6FEE72068816921F400618161FF
:10512000082269461048FFF72AFD08B172B6FEE76B
:105130002068C16921F00801C161079508950995AA
:105140004FF400500A95CDE90B5007A906480E957B
:10515000FFF760F908B172B6FEE70348FFF7D0FC2D
:1051600015B030BD002C01403802002070B590B061
:10517000002409940A940B94142104A80C94FBF7BE
:1051800071FA2C480D940E940094019402944FF0FF
:105190008041039401604721C0E9011444F61F6176
:1051A000C0E903148461FFF793F908B172B6FEE712
:1051B0004FF48050099009A91E48FFF70FFA08B173
:1051C00072B6FEE71B48FFF70AFB08B172B6FEE7AE
:1051D00004265020022504960894CDE9050504A96B
:1051E0001448FFF7E8FD08B172B6FEE70D940DA96B
:1051F00010480E94FFF738F908B172B6FEE701AB1C
:105200000120009583E85100002269460948FFF714
:1052100054FA08B172B6FEE7CDE9004504226946AA
:1052200004480394FFF749FA002801D072B6FEE75C
:1052300010B070BD8002002010B586B00024184860
:105240000594049400940194029414490394C0E9D1
:1052500000144FF6FF71C0E9024104618461FFF759
:10526000BEFA08B172B6FEE7049404A90C4805948E
:10527000FFF7FAF808B172B6FEE70120CDE9004069
:1052800002940022694606480394FFF716FA0028A4
:1052900001D072B6FEE706B010BD00000004004069
:1052A000C802002010B58EB0002407940894099419
:1052B0000A940B941C2168460C94FBF7D3F92348FD
:1052C0002149016040F26711C0E901146321C0E97E
:1052D000031480218161FFF7FBF808B172B6FEE785
:1052E0004FF48050079007A91848FFF777F908B1E5
:1052F00072B6FEE71548FFF7A8FC08B172B6FEE7E4
:105300000B940BA911480C94FFF7AEF808B172B6D4
:10531000FEE76020CDE900040294002269460B48B4
:105320000494FFF72CFC08B172B6FEE7042269462C
:105330000648FFF724FC08B172B6FEE70348FFF702
:10534000DFFB0EB010BD000000080040100300207D
:1053500010B500220F49104800F002FF08B1FDF718
:1053600086FA0E490C4801F0DFF808B1FDF77FFA24
:105370000B49094800F000FD08B1FDF778FA06482E
:1053800001F028F9002803D0BDE81040FDF76FBAFE
:1053900010BD000020000020580300206C010020F8
:1053A00070000020FEE7FEE72DE9F84F044640F6C6
:1053B0008F7B48F60F794FF480684FF0000AC0E108
:1053C000B0F8441011F00F0539D030F825603104E1
:1053D0007ED530F8251001EA0B0141F0800120F85C
:1053E000251005EB850004EBC00797F8740107F55D
:1053F000B47700286DD0F87802286BD0397822680D
:1054000032F8210048F68F73184048F2C003184361
:1054100022F821003978206830F82120B0F8503087
:1054200052047DD5022202EBC1015A1808EB420159
:10543000415A8905890D009173D03A89DFE0C90688
:105440002DD4018801EA090141F40041018020685E
:1054500004F12805B0F850302978022202EBC1018E
:105460005A1808EB4201405AC0F309006064E16B2E
:105470000844E06300212046FDF7E1FE94F8240093
:1054800000289CD0A869002899D194F824002168AC
:1054900040F08000A1F84C0084F824A051E101887C
:1054A00004F5B4750A0521D5B0F850202B780621F3
:1054B00001EBC3010A4408EB4201405A04F52C7188
:1054C000C0F30903EB61EA88206801F0EFFE02E017
:1054D000B0E070E080E02068018801EA0B0141F053
:1054E000800101802046FEF71CFB2AE10904D5D586
:1054F000018801EA0B0141F0800101802068B0F8C9
:1055000050202B78062101EBC3010A4408EB42012D
:10551000405A83059B0DEB6110D0696971B101E0C0
:1055200061E05FE0EA88206801F0C0FEE96968692F
:105530000844686100212046FDF78AFE216808883A
:105540000205ABD4C0F301300328A7D0B1F8500056
:105550000844B0F80C14C1F30901A0F80C142A692E
:1055600000F20C403E2A09D95109D20600D1491E49
:1055700002884FF4004343EA812109E0B2B15108A7
:10558000D20700D0491C02884FF6FF7303EA81213D
:105590000A430280216808884BF68F72104080F41D
:1055A000405048F2800210430880CAE0018841F46C
:1055B00000410180EEE72068B0F850203B780621DA
:1055C00001EBC3010A4408EB4201415A8905890DE8
:1055D000009118D0FA8812E0324639462046FDF78D
:1055E00095FE00900FE0062202EBC1015A1808EB6D
:1055F0004201415A8905890D009104D07A8979695F
:10560000009B01F053FEF86900990844F86179693C
:10561000009808447861B86918B1396900988142E6
:1056200004D939782046FDF713FE03E03946206897
:1056300001F086FB30062FD505EB850004EBC00199
:10564000206830F8252002EA090242F4004220F8DE
:10565000252091F82B00283101281ED0F0056CD4AC
:105660002068B0F850300D78022202EBC5021A44CF
:1056700008EB4202805A8A69C0F30900824255D978
:10568000121A8A6154D04A6902444A61CA691044B4
:10569000C861206801F054FB53E0C1F818A0087BF2
:1056A000524608B3700620D5487810B1012812D0B0
:1056B0003AE02068B0F8502010440A7800EB02105D
:1056C000B0F80424C2F30902A0F80424B0F80424BA
:1056D00042F4004206E02068B0F8503018440B78DD
:1056E00000EB0310A0F804241EE04B78206813B1EF
:1056F000012B11D018E0B0F8502010440A7800EBCC
:105700000210B0F80C24C2F30902A0F80C24B0F87F
:105710000C2442F4004205E0B0F8503018440B78F5
:1057200000EB0310A0F80C24097802E0C1F818A0DF
:10573000E9B22046FDF783FD03E032462046FDF73F
:1057400058FE2068B0F8441009043FF539AE002037
:10575000BDE8F88F704700000148FEF73BBD000030
:10576000E001002010B5406A0021C187C186FEF724
:105770002FFD10BD7047000070B5FDF7A9FC0F4C60
:105780004FF47A720023D4E902510E462846FAF704
:1057900099FD681C46F10001C4E9020160681A43E2
:1057A00001D1401C60600649B0FBF1F201FB120020
:1057B000002802D12088401C208070BD00000020FD
:1057C0008051010030B593B028216846FAF74AFFAE
:1057D00014210AA8FAF746FF002401200F94109420
:1057E0001194010412948DE8130004904FF4E0101A
:1057F000CDE90810022507956846FEF759FB08B168
:1058000072B6FEE70F20CDE90A054FF48060CDE9BE
:105810000C4002210AA80E94FEF77EFA08B172B677
:10582000FEE712200F904FF40040CDE911040FA8BD
:10583000FEF7FCF9002801D072B6FEE713B030BDC8
:10584000704700000148FFF7A7B800008002002061
:105850000148FFF7A1B80000C8020020F0B50268B7
:10586000164B174C174D4FF08047984205D0B84261
:1058700003D0A04201D0A84203D122F070064A68AA
:105880003243984205D0B84203D0A04201D0A8428A
:1058900003D122F44074CA6822434C6922F080028A
:1058A000224302608A68C2620A688262984201D119
:1058B0000969016301214161F0BD0000002C014034
:1058C000000400400008004010B501F01F03012152
:1058D000046A99408C430462016A9A401143016250
:1058E00010BD10B5846842EA032224F47F440A43C1
:1058F0002243826010BD826822F070020A4342F0A7
:10590000070181607047000030B5036A026A22F027
:10591000010202624268846924F073050C682C431A
:1059200023F002058B682B430A4DA8420BD123F0CC
:105930000805CB6822F440722B434D6923F0040321
:1059400015438A692A43426084614968416303625E
:1059500030BD0000002C014030B5026A036A23F01C
:1059600010030362436884690D6824F4E64444EA42
:1059700005248D6822F0200242EA05120B4DA84250
:105980000ED1CD6822F0800242EA05124D6923F45F
:10599000406343EA85038D6922F0400243EA8503B0
:1059A0004360846149688163026230BD002C01401C
:1059B00030B5036A026A22F4807202624268C469E6
:1059C00023F4007324F073050C682C438D6843EABC
:1059D00005230C4DA8420ED1CD6823F4006343EAA1
:1059E00005234D6922F4405242EA05128D6923F4E1
:1059F000806342EA05124260C4614968C163036280
:105A000030BD0000002C014030B5046A026A22F467
:105A1000805202624268C3690D6823F4E64343EA98
:105A200005238D6824F4005444EA0534064DA84249
:105A300004D14D6922F4804242EA85124260C3617A
:105A400049680164046230BD002C014070B50368F0
:105A500000249A6822F070054A682A4322F007055C
:105A60000A682A439A604A6812F00F0F31D1121166
:105A7000082A2ED2DFE802F02E2E2E2E0B2127042C
:105A80000B69D1E902210068FFF72BFF22E00A68C9
:105A9000052A10D00268136A156A25F001051562FF
:105AA00002689569096925F0F00545EA01119161DF
:105AB000006803620EE0012070BD0A698968006811
:105AC00000F00AF806E00A698968006800F042F808
:105AD00000E00124204670BD10B5036A046A24F07A
